:100000006F10F077130000001300000013000000D1
:100010001300000013000000130000001300000094
:100020001300000013000000130000001300000084
:08003000130000007300100032
:100038000000000000000000121F0000141F000054
:1000480000000000161F0000000000000000000073
:10005800181F00001A1F0000000000000000000028
:10006800D0260000000000001E1F00000000000055
:10007800201F0000221F0000241F0000261F000070
:10008800281F00002A1F00002C1F00002E1F000040
:10009800301F0000321F0000341F0000361F000010
:1000A800381F00003A1F00003C1F00003E1F0000E0
:1000B800401F0000421F0000441F0000461F0000B0
:1000C800702700004A1F00004C1F00004E1F000050
:1000D800501F0000521F0000541F0000561F000050
:1000E800581F00005A1F00005C1F00005E1F000020
:1000F800601F0000621F0000641F0000661F0000F0
:10010800681F00006A1F00006C1F00006E1F0000BF
:10011800701F0000721F000078270000761F000083
:10012800781F00007A1F00007C1F000000000000FC
:080138000000000000000000BF
:10014000397101436EC619A0397141536AC866CA34
:1001500062CC5ECE19A0397101535AD056D252D416
:100160004ED64AD826DA22DC06DE3301614082828E
:1001700041114AC026C222C406C68282B24D410144
:10018000024D924C224CB24B4101024B924A224A00
:10019000B2494101024992442244B2404101828065
:1001A0003D432A876373C3029377F700BDEFADE544
:1001B000937606FF3D8ABA960CC34CC30CC74CC756
:1001C0004107E36BD7FE11E28280B306C3408A0683
:1001D0009702000096966780A6002307B700A30643
:1001E000B7002306B700A305B7002305B700A30493
:1001F000B7002304B700A303B7002303B700A3028B
:10020000B7002302B700A301B7002301B700A30082
:10021000B7002300B700828093F5F50F9396850011
:10022000D58D93960501D58D61B7939627009702DA
:10023000000096968682E78086FA9680C1171D8F09
:100240003E96E374C3F8A5B78280B71700201387E2
:10025000C7A88567BA9705472398E7848280EFF29D
:100260003FF1B71500209385E52D0D45EF1030487F
:1002700042054181B71700201387C7A88567BA9741
:100280002399A7880547239AE78829B7EFF25FEEFD
:100290000111B767004003A747C442074183938712
:1002A000C1869AA39E2303D74189F98F93F707202C
:1002B00099CF37670040C1679387F7DF2322F7C4E0
:1002C000138701861C23850793F7F70F1CA383D799
:1002D000C18603D74189F98FC207C18763CF070A57
:1002E00083D7C18603D74189F98F93F7074089CF18
:1002F00037670040C1679387F7BF2322F7C4B7076A
:10030000002083A78705829783D7C18603D74189B9
:10031000F98F139727016358070037670040B967C3
:10032000FD172322F7C483D7C18603D74189F98FEC
:10033000139737016346070683D7C18603D74189E0
:10034000F98F13974701635E070083A78182BDC3BE
:10035000EF00A07A37670040BD679387F77F2322BD
:10036000F7C483D7C18603D74189F98F93F7071064
:100370009DC337670040C1679387F7EF2322F7C417
:10038000832787C413970701634A070223A20186C4
:100390001D45EF0010060561F5BBEF10C03589B7AC
:1003A00037670040BD67FD172322F7C40145EF0002
:1003B000500459B70945EF00D00369BF93874186C0
:1003C0009843050798C398438D47E3F3E7FCB76765
:1003D000004083A707C4A18BC5FF37660040832771
:1003E00006C4C207C18323A4F186130606C0814751
:1003F000C165FD1521451442ED8E139727001308A2
:10040000010242972320D7FE85071106E395A7FE38
:100410009387818698431367170098C39443416775
:100420007D17F98E376600402320D6C49443F99A8D
:1004300094C39C437D8F2320E6C437670040832705
:1004400047C493F70740E5DFB7660040C16793876D
:10045000F7BF23A2F6C4938606C0814741667D1686
:10046000A1451397270008102A97032707FE718FCD
:1004700098C285079106E396B7FE23A2018609BFBD
:1004800003A7018583A7C1846319F70083C781840B
:1004900093F7F70F014591E38280EFF27FCD13844C
:1004A00001851C409384818598401A079A0793859B
:1004B00081CBBA951385818B3E95EF20B00D9C4082
:1004C0001C40138717FF85073337E0003307E040F0
:1004D000F98F138701851CC3184383A7C184630D5B
:1004E000F702B707002083C7870D93F7F70F85EB57
:1004F00083A78185138717FF85073337E00033070C
:10050000E040F98F138781851CC3184383A7C185F9
:100510000545630BF702BDB923840184D9B7B7073A
:100520000020238C070C83A781859A0713060004FB
:10053000938581CBBE9513051008EF10B0180545C3
:10054000EF1000760545C1BF0547238AE184E1B776
:1005500018219D476308F70403A7C18483A7018579
:100560006317F70083C7818493F7F70FB9E7EFF2BA
:100570003FC02E86AA851384C1841C409A07138528
:10058000818B3E95EF5090151C4085071CC018408C
:10059000C147630DF70003A7C18483A70185630AE0
:1005A000F700CDBE0547238AE18A828023A6018415
:1005B000DDB705472384E184EDB78280EFF25FBBAE
:1005C00039711306000481450A85D93E8A8505459F
:1005D000EF10F011930500040A859D3F8D650545D8
:1005E000EF10206621617DB603A7C18583A78185B1
:1005F0006317F70083C7418593F7F70FB9C7EFF289
:100600003FB71384C1851C409A07130600049385E5
:1006100081CBBE9513051008EF10D00A0545EF10E9
:1006200020681C4085071CC01840C1476309F700BB
:1006300003A7C18583A781856306F700A1BE23AE0A
:100640000184FDB7238A0184D5BFB7070020054781
:10065000238CE70C8280EFF2BFB1793725BE83C7C8
:10066000210E81C7154723ACE1868280114723AC58
:10067000E186828082808280828091E5854733B5E1
:10068000A700060582800945828001C51385418344
:10069000828083A781881D479AAB828001C513851C
:1006A0004183828083A781881D479AAB8280EFF2C5
:1006B0003FAC03A781881C2393F7F7078546638522
:1006C000D7029306100209456399D7041C33130718
:1006D0001002638AE704130700026390E7043704FB
:1006E00000001304C46915A03C239306200263870D
:1006F000D7029306100209456391D7023714000010
:10070000130404AC00CF0145029483A7818880CFF5
:1007100023990700014502940145ADBC3714000040
:10072000130404ABC5B7370400001304A468F1BF79
:1007300083A7818898339C2393F7F70793061002C9
:1007400001456383D70082801307E7FD1377F70F16
:1007500005453335E5000605FDB703A781881C2351
:1007600093F7F707930610026383D700828018334C
:1007700093070002E31CF7FEEFF29F9F138541836E
:10078000EF20602001BCEFF2BF9E83A78188238504
:1007900007003D2EB7670040938707C00566130624
:1007A000F6F0B7660040938606C29843718F98C3EF
:1007B0009107E39CD7FEB76700401307F00F23A211
:1007C000E7C4EF10206E23AC018681450145EF1090
:1007D000707B5145EF20400785450545EF10907A25
:1007E0006FF05F9BEFF2DF9883A781882385070076
:1007F0001967034777F998B7A38507000145EF10FC
:10080000003C930500200145EF10603C9305000873
:100810000145EF10C057930500040145EF10205922
:1008200037040020130444058345C4020145EF103A
:10083000C05D8345C4020145EF10005FC14501451D
:10084000EF10E03A8D650145EF10A03FB76700401B
:1008500083A707C01397170163520702B7660040CA
:1008600083A706C0C207C18305671307F7F0F98F96
:10087000316713070708D98F23A0F6C0B767004078
:1008800083A707C093F707048DC3B766004083A70B
:1008900006C0C207C18305671307F7F0F98F216708
:1008A0001307070CD98F23A0F6C0930500600545F8
:1008B000EF10E0319305000C0545EF10404D930516
:1008C00000100545EF10A04E930500040545EF10FC
:1008D000C053930500040545EF1000559305000231
:1008E0000545EF10C0308D650545EF108035B767C1
:1008F000004083A747C093F707048DC3B766004045
:1009000083A746C0C207C18305671307F7F0F98FB5
:1009100021671307070CD98F23A2F6C0B7670040E1
:1009200083A747C01397170163520702B7660040B9
:1009300083A746C0C207C18305671307F7F0F98F85
:10094000316713070708D98F23A2F6C0930500600B
:100950000945EF10C027930500140945EF10204307
:10096000A1450945EF10604A930500020945EF10C3
:10097000002881450945EF10C02CB767004083A7C8
:1009800047C093F707048DC3B766004083A746C0EE
:10099000C207C18305671307F7F0F98F21671307B3
:1009A000070CD98F23A2F6C081450D45EF102022F8
:1009B000930500180D45EF10803D9305001C0D4573
:1009C000EF10E03E930500040D45EF100044930541
:1009D00000040D45EF104045930500020D45EF1052
:1009E00000218D650D45EF10C025B767004083A736
:1009F000C7C093F707048DC3B766004083A7C6C07E
:100A0000C207C18305671307F7F0F98F2167130742
:100A1000070CD98F23A6F6C0B767004083A7C7C0CD
:100A20001397170163520702B766004083A7C6C039
:100A3000C207C18305671307F7F0F98F3167130702
:100A40000708D98F23A6F6C00145EF00B03C8546C4
:100A500023ACD186B71700201387C7A88567BA973C
:100A60002398D7846FF00FF3EFF28FF09385C18056
:100A7000EF00E0706FF00FF2EFF28FEF938541809F
:100A8000EF00E06F6FF00FF183A78188AC339147DF
:100A900063EEB700EFF2CFED8E05B7070020938726
:100AA0004708BE95EF00A06D6FF0CFEE0145828044
:100AB000EFF20FEC93850182EF00606C6FF08FED29
:100AC000EFF20FEB93858181EF00606B6FF08FEC9D
:100AD000B7670040054723A0E7C423A007C423A2AB
:100AE00007C40967130707C0239AE188096713073A
:100AF00007C023A0E7C401458280376600408325F4
:100B000006C4C205C181130606C0814741687D182D
:100B10001385810BA1481442B3F6060113972700F1
:100B20002A9714C385071106E39717FF13E70540BB
:100B3000B767004023A0E7C413E7154023A0E7C42C
:100B4000F999C205C18113E7054023A0E7C43767BF
:100B50000040832747C493F70740E5DFB7660040AE
:100B6000C1679387F7BF23A2F6C4938606C0814767
:100B70001385810B41667D162148139727002A971C
:100B80001843718F98C285079106E39807FF93E594
:100B90008540376700402320B7C4832707C4C207B6
:100BA000C18393E747002320F7C40D4723ACE186B8
:100BB000828083C7210E89C7154723ACE1868280D6
:100BC000054723ACE1868280EFF28FDA376400407C
:100BD000832704C4C207C183ED9BC207C1832320BE
:100BE000F4C4C13FB167938707F02320F4C46FF0CA
:100BF0006FDA9D476304F50023A8A18683A70187C8
:100C000015476363F70CEFF2AFD68A07196713072E
:100C10008706BA979C43828783A7C18789C71547F0
:100C200023A8E18629A84D37194723A8E18601A802
:100C3000613F114723A8E186054723AEE1866FF0A7
:100C40006FD5938701870947D8A30D4798C3C5BFC0
:100C500093870187D8237D171377F70FD8A3DC2359
:100C600093F7F70FE9FF114723A8E186C9BF37675C
:100C70000040832707C4C207C18393E707012320ED
:100C8000F7C493870187154798C32947D8A345BF61
:100C900093870187D8237D171377F70FD8A3DC2319
:100CA00093F7F70FC9FF37670040832707C4C207D0
:100CB000C183BD9BC207C1832320F7C4194723A862
:100CC000E18623AE0186A5BF194723A8E18682806D
:100CD00001CDEFF2EFC983A701899C43829703A559
:100CE000818829056FF00FCB83A7818805479AABD0
:100CF000828001CDEFF2CFC783A701899C478297FD
:100D000003A5818831056FF0EFC883A78188054767
:100D10009AAB828039C12392018803A781881C2362
:100D200093F7F707B1E71C3713F7070201C78946A6
:100D30002382D18893F7070495C793874188982326
:100D40001367170098A3EFF2AFC283A701899C4BEA
:100D50008297138541886FF0EFC383A78188094785
:100D60009AAB8280938741889823799B98A3E1BFAF
:100D70008546638DD70489460145639CD704583363
:100D80009377F70062076187634207028A07376734
:100D90000040130707C0BA979C430D67F98F05679A
:100DA000E393E7FA05472382E18871BF8A07376733
:100DB0000040130707C0BA979C4393F707034147C6
:100DC000E393E7F805472382E188B5BF138541889F
:100DD00082808280EFF22FB883A48188822839E450
:100DE000982491476305F700DE281149A1A003A7C5
:100DF000018885476307F7004147239CE1881D4927
:100E0000A5A8B767004083A707C5C207C1833737C6
:100E100000200907BA97860723A0070013070003DD
:100E2000239CE18823A001881149B9A0DE2863FB37
:100E30008704094963F387003E84420441809C4C47
:100E400022858297AA890145EF0090782286AA859B
:100E50004E85EF00F052A2850145EF00107B9E28E1
:100E6000818F9EA8BE283E94A2A813070003239C4E
:100E7000E1880D67239BE18883A78188238427016C
:100E80006FF0AFB011497DB783A78188B83383C6AF
:100E90005181094563E0E602B42389EED62399EA3D
:100EA000EFF20FADB8A783A70189DC438297014514
:100EB0006FF04FAE8280EFF2AFAB83A7818803A7BC
:100EC000C188184FAC33C833029783A78188B827ED
:100ED00009440DC32A8415E1D82315E3BC2395E307
:100EE00083A70189DC47829783A78188D833B8B765
:100EF000B833D8A722856FF0EFA90944E5BF0944AC
:100F0000D5BF0944C5BF03A781881C2393F7F70702
:100F100091C7894609456389D70082801C3793F7BA
:100F2000F7FD1CB7014582803E23E5FB5C23F5F706
:100F30005C3313F6F7F7E207E18763CC07049316F7
:100F40002600B7650040938505C0AE9694428D6536
:100F5000ED8E83C541810945E371B6FCDDDE38279E
:100F60004DDFEFF2EFA063C1070413142600B7674B
:100F70000040938707C03E941C400D67F98F0567BA
:100F8000638CE70483A70189DC4B829701456FF0EE
:100F90006FA093162600B7650040938505C0AE96F6
:100FA000944293F6060375B79317260037670040FF
:100FB000130707C0BA979C4393F707034147E3938E
:100FC000E7FC1374F60F2285EF0090599305000398
:100FD0002285EF00D0417DB731E6B707002083C5F9
:100FE00007080145EF0050641840F1779387F7F840
:100FF0007D8F420741838D673D8FE1779387070897
:101000005D8F4207418318C01C408D66F58FE38BCE
:10101000D7F641667D1618C01C40F18FF58FE39C12
:10102000D7FE8DB73285EF00B0501840F177938727
:10103000F7F87D8F420741838D673D8FE177938776
:1010400007085D8F4207418318C01C408D66F58FED
:10105000E38AD7F241667D1618C01C40F18FF58FE8
:10106000E39CD7FE05B703A6818858329377F7F73C
:10107000620761876347070893962700B7650040BA
:10108000938505C0AE9694428D65ED8E83C54181F2
:10109000094563F6B70C2E22F9E1F1C23426E1C20C
:1010A000EFF20F8D634A07068A0737670040130780
:1010B00007C0BA97944371771307F7F8F98EC20601
:1010C000C1820567B98E617713070708D98EC206FA
:1010D000C18294C398430D66718F0566630CC70087
:1010E00041667D160D65856594C39843718F698F40
:1010F000E31CB7FE83A701899C4F829701456FF0DF
:101100006F8993962700B7650040938505C0AE961A
:10111000944293F606039DBF8A0737670040130782
:1011200007C0BA97944365771307F7FBF98EC20699
:10113000C18293C60601617713070708D98EC206DC
:10114000C18294C39843137707034146E304C7FA67
:1011500094C3984313770703E31CC7FE61BF8280E3
:10116000EFF20F8103A781881C3793E707021CB7B2
:1011700083A70189DC4F829701456FF0AF8183A778
:101180008188BA2B01C588413A958280CA21198D80
:101190008AAB01458280EFE2BFFDB707002083C51F
:1011A00007080145EF00504883A781888827A14799
:1011B0006307F5005D15133515006FE0BFFD05678A
:1011C000239BE1884147239CE188EDB7EFE25FFA7A
:1011D0004111B767004083A707C503A7818810277F
:1011E000A5466315D60483A78188054798A7FA23E7
:1011F00063190712803398231377F70745EB2547C8
:10120000630EE4061547630FE4060D476308E40820
:1012100005476313E40AB4336390E60ADA2349EF1F
:101220009C3793F70702C9CBF93999A84164930613
:10123000F4FFF58F373600201106B29786078043FA
:10124000758C0604B76700403E941C201CA383A73E
:101250008188183098B303A981884A20EF00B043F1
:101260002311A90003A981880A24EF00D042231288
:10127000A9005A2483A78188FAA3B5B7EFF0DFC08D
:1012800039C51DA883863700214763C40606B423E9
:10129000ADE2D623B9EEBC279DCBA1A8B433054758
:1012A000639CE600DE2389EB653DD9BF8547630972
:1012B000F7048947630CF70483A7C188DC4B2285B8
:1012C00082978D4725476306F50221471DE1B767E1
:1012D000004083A707C5C207C1833737002009072D
:1012E000BA97860723A0070013070003239CE18811
:1012F000194783A7818898A7793D41016FE09FE94D
:10130000AD47E31BF4FAEFF01FBB9DBF85476307B2
:10131000F4008D47E312F4FAB9339DB7EFF0BFBE86
:1013200085B798339946630FD70463150712BA231C
:1013300011EBD843C1769386F60F758FB70602007E
:10134000630DD70603A7818883A7C1889C4B083308
:1013500082978D476301F51883A78188962B416793
:101360007D176383E6120947630CE516638A061648
:1013700003870700634907160D4798A70D67239B4E
:10138000E1889DBF98231377F7074DFFBC230547DE
:10139000638CE7000947638EE7000D47E394E7FAA3
:1013A00083A7C188DC5321A083A7C188DC4FD9DB88
:1013B00075A883A7C1889C53DDBF98231377F707CF
:1013C00001EBDE23C1F3B7170000938747D179A85B
:1013D00085466312D70203A7C188184F8145C833D9
:1013E00002972DF183A78188BC27A9DFB7170000DA
:1013F000938747D1A5A88946E316D7F4DC3393F643
:10140000F700139787016187634B07021397260044
:1014100037660040130606C0329718430D66718F79
:1014200003C64181E3F0C6F293F70707E39C07F098
:10143000E30A07F0B7170000938747D105A8139771
:10144000260037660040130606C03297184313770C
:101450000703F9B7A146631CD7029C2393F7F7074C
:10146000E39207EEB7170000938707CD03A78188A3
:10147000231907001CCF0145829783A78188962BEB
:1014800041677D17E394E6EE254798A7B5B5A946D1
:10149000E31AD7EA98231377F7078546E314D7EAC8
:1014A000B827E30107EABA23E31E07E8D843C17669
:1014B0009386F60F758FC166E316D7E803A7C18838
:1014C000184F8145C8330297E31E05E6B7170000A1
:1014D000938727CF61BF83A78188254798A729BD18
:1014E000214798A711BDFA233AC63246637CD6003D
:1014F00032479AAB03A7C1880347C702DAABEFF0C4
:101500007F8DDDBBE3F8E6FE03A7C1880347C70272
:1015100013160701418263F5C60023A00188D9BFD5
:10152000B3E6E602E1FA854623A0D188E1B7EFE20F
:101530003FC403A4818818249307E7FF93F7D70FCC
:10154000A146F1C39307D7FF93F7D70F99CB9D47D8
:10155000A146631AF70A83A7C188DC478297A14690
:101560005DA01C4C8DCB0628C1C45A28637397001C
:10157000BA84C204C180268582972A891E28858F55
:101580001EA83E28A6973EA80145EF0030062686F5
:10159000AA854A8539251E28A1CF0D67239BE1889E
:1015A00081450145EF00700613070003239CE18885
:1015B0001E285A2863F2E70491C783A7818815473C
:1015C00098A73DA883A78188194798A7B7670040C7
:1015D00083A707C5C207C183373700200907BA9719
:1015E000860723A0070013070003239CE18809A8AE
:1015F0001A285E28E368F7FC83A781880D4798A71F
:1016000083A78188942783A7818894A7EFF0BFB828
:101610006FE05FB803CE4181630F0E0281463763EE
:101620000040130303C0C168FD1805681308F8F0F3
:10163000A1659385050813F6F60F131726001A9770
:101640001C43B3F71701B3F70701D18FCD8F1CC32C
:101650008506E312DEFE13650508B767004023A682
:10166000A7C48280EFE2DFB083A681889826930723
:10167000E7FF93F7D70F99CF1946A1476311C70228
:10168000983295476304F70283A7C1889C478297E5
:10169000A14731A0EFF00FF483A781889C2703A70F
:1016A00081881CA7EFF03FAF6FE0DFAE9C2293F77D
:1016B000F707F9FBA832B93F83A701899C538297AA
:1016C000E1B78280EFE2DFAA9387810D23A4F1883E
:1016D000094798A7370700209306470523A6D18816
:1016E000B70700209387470A23A8F1888327470577
:1016F00082976FE03FAAEFE21FA641112317010076
:10170000B7690040138409C0370A0020130ACA01D0
:10171000B70A0020938A8A03E1A018404207418358
:10172000938761899AA39A2313770703239CE188FF
:101730009A238D66758F9AA31C4025671307F7FBC4
:10174000F98F1840B1669386F6F8758F8966358FE4
:1017500093C7070293960701C182D98F21661306AA
:101760000608D18F1CC01C4093F707031306000224
:10177000638EC700E17793870708DD8EC206C182BA
:1017800014C01C4093F70703E39CC7FE1C408D6602
:10179000F58F89666382D702E177938707085D8FAB
:1017A00042074183C166FD168D65096618C01C405D
:1017B000F58FED8FE39CC7FE83D7C186C18BD9C35C
:1017C0001C40C207C1837C87388785679387078061
:1017D000F98F639F07163C87C207C18763CF07262F
:1017E00083A749C41397070141832396E186139782
:1017F0000701635C071483D7C186BD8B2383F188FF
:1018000089DF8A07A2979843420741837887388700
:1018100042074187634807343C8793F70708E9D3B9
:1018200083C761888A07A2979843A5669386F6F0D6
:10183000758F98C383C76188FD178A07D2979C4329
:10184000829779BF37640040832704C0A56413875B
:10185000F4F0F98F2320F4C03135032704C09384BA
:10186000F4FB658F032604C0B1679387F7F87D8E7C
:1018700083D761899396370163D4060085673D8ECF
:1018800083D761899396270163D4060089673D8ECB
:1018900083D78189C18B99C31347070183D7818976
:1018A00093F7070299C31347070293170701C183F0
:1018B000518FA16693860608558FB766004023A016
:1018C000E6C083A606C003D781894207418393F609
:1018D00006036388E602E17593850508CD8FB76638
:1018E0000040938606C093950701C1818CC298423F
:1018F000938781899E23C207C18313770703E31768
:10190000F7FEB767004003A707C083D76189C20706
:10191000C1838D66758F630AF702E17793870708A5
:101920005D8EB7660040938606C042064182C1655F
:10193000FD150D6590C29C42138761891A234207E9
:101940004183ED8FE98FE397E7FE41016FE0FF836D
:1019500037640040832704C005671307F7F8F98F41
:101960002320F4C0EFF09F86832704C02567130768
:10197000F7FBF98F032604C031671307F7F8798E58
:1019800003D761899316370163D406000567398E42
:1019900003D761899316270163D406000967398E3E
:1019A00003D78189418B19C393C7070103D7818965
:1019B0001377070219C393C7070293950701C181E3
:1019C000D18F216713070708D98F3767004023207D
:1019D000F7C0032707C083D78189C207C183137764
:1019E00007036307F702E17793870708DD8DB76682
:1019F0000040938606C0C205C1818CC2984293877D
:101A000081899E23C207C18313770703E317F7FE7B
:101A1000B767004003A707C083D76189C207C183A6
:101A20008D66758FE303F7F2E177938707085D8E84
:101A3000B7660040938606C042064182C165FD1527
:101A40000D6590C29C42138761891A234207418326
:101A5000ED8FE98FE397E7FECDBD37640040832724
:101A600004C005671307F7F8F98F2320F4C0EFF0DF
:101A70001FAC832704C025671307F7FBF98F0326E4
:101A800004C031671307F7F8798E03D7618993167D
:101A9000370163D406000567398E03D76189931631
:101AA000270163D406000967398E03D78189418BEA
:101AB00019C393C7070103D781891377070219C395
:101AC00093C7070293950701C181D18F216713073F
:101AD0000708D98F376700402320F7C0032707C0C6
:101AE00083D78189C207C183137707036307F7028E
:101AF000E17793870708DD8DB7660040938606C0BF
:101B0000C205C1818CC29842938781899E23C207F6
:101B1000C18313770703E317F7FEB767004003A7F6
:101B200007C083D76189C207C1838D66758FE30EB5
:101B3000F7E0E177938707085D8EB76600409386EC
:101B400006C042064182C165FD150D6590C29C42EA
:101B5000138761891A2342074183ED8FE98FE39749
:101B6000E7FEE5B3984385669386F6F8758F98C3CC
:101B700083C76188FD178A07D6979C43829769B906
:101B800005060586B7370020BE95860511CA1C31AB
:101B9000A2071821D98F9EA1910509057D1665FA26
:101BA000828005060586B7370020BE95860519C6D2
:101BB0009C411EA109057D1691057DFA82806199DF
:101BC00042054181B767004023A8A7C482800A0567
:101BD000B7670040938707C03E951C4165771307A0
:101BE000F798F98FDD8DC205C1810CC182800A058D
:101BF000B7670040938707C03E951841E577938704
:101C0000F7FB7D8F4207418393F7050199C3134783
:101C1000070193F7050299C313470702E1779387FA
:101C200007085D8F4207418318C11C4193F70703E2
:101C30006388B70018C11C4193F70703E39CB7FE04
:101C400082800A05B7670040938707C03E95184118
:101C5000F1779387F7F87D8F42074183939735019A
:101C600063D4070085673D8F9397250163D40700F0
:101C700089673D8FE177938707085D8F420741832E
:101C800018C11C418D66F58F638BB700C166FD16C8
:101C90000D6618C11C41F58FF18FE39CB7FE828061
:101CA0000A05B7670040938707C03E951841E5775E
:101CB0009387F7FB7D8F4207418313470703E17743
:101CC000938707085D8F4207418318C11C4193F732
:101CD0000703930600036388D70018C11C4193F7DC
:101CE0000703E39CD7FE82800A05B767004093870D
:101CF00007C03E951841F1779387F7F87D8F42072B
:101D000041838D673D8FE177938707085D8F420799
:101D1000418318C11C418D66F58F638AD7004166E7
:101D20007D1618C11C41F18FF58FE39CD7FE828090
:101D30000A05B7670040938707C03E951C4113977B
:101D40001701635E07001C41C207C18305671307C3
:101D5000F7F0F98F316713070708D98F1CC182800C
:101D60000A05B7670040938707C03E951C4193F76B
:101D7000070489CF1C41C207C18305671307F7F029
:101D8000F98F21671307070CD98F1CC18280B767B1
:101D9000004083A707C5C207C1830E053E95B7372C
:101DA00000203E950605858186050CC18280B767B7
:101DB000004083A707C5C207C1830E053E95B7370C
:101DC000002091073E950605858186050CC182801D
:101DD000B767004083A707C5C207C1830E053E95BC
:101DE000B73700203E9506050A218280B76700407C
:101DF00083A707C5C207C1830E053E95B7370020EC
:101E000091073E9506050A218280B767004083A7A7
:101E100007C5C207C1830E053E95B7370020890765
:101E20003E9506050CC18280B767004083A707C5B1
:101E3000C207C1830E05AA97373500201905AA9756
:101E400086071307E003637EB70013D75500FD89AB
:101E500081E57D17420741832A07A166558F98C304
:101E6000828013D715008589B335B0002E972A07D5
:101E700098C38280B767004083A707C5C207C183A4
:101E80000E053E95B737002099073E950605084197
:101E90001375F53F8280935785001375F50F220562
:101EA0005D8D828037670040232207C4F1779387D6
:101EB00007F0239AF188B167938707F02320F7C4CE
:101EC00001458280EFE2CFAA2E8932849374F50710
:101ED0002685FD3D420441802286AA854A85EFF091
:101EE0003FCAA2852685153701456FE0AFAAEFE20C
:101EF0002FA82E899374F5072685AD3F2A84268561
:101F0000F5352286AA854A85EFF0BFC922856FE0A4
:101F10006FA801A001A001A001A001A001A001A043
:101F200001A001A001A001A001A001A001A001A0A9
:101F300001A001A001A001A001A001A001A001A099
:101F400001A001A001A001A001A001A001A001A089
:101F500001A001A001A001A001A001A001A001A079
:101F600001A001A001A001A001A001A001A001A069
:101F700001A001A001A001A001A001A001A097F172
:101F8000FF1F9381A195171100201301A187174509
:101F900000001305651A97E5FF1F9385A5061386B4
:101FA000818463FAC5008322050023A05500110532
:101FB0009105E3EAC5FE1385818497F5FF1F93859C
:101FC000A53C6377B500232005001105E36DB5FE40
:101FD000FD42739002BC8D42739042809302800850
:101FE00073A0023097E2FFFF9382420593E2320032
:101FF00073905230EF0040019702000093826275A7
:102000007390123473002030B7170240984313675F
:10201000170098C3D843B706FFF8758FD8C3984305
:10202000B706F7FEFD16758F98C39843B706FCFFF9
:10203000FD16758F98C3D843B70681FFFD16758FBF
:10204000D8C337079F0098C7B746024003A706804A
:102050001367070123A0E680D843D8C3D843D8C369
:10206000D84313670740D8C3D843B706C1FFFD164E
:10207000758FD8C3D843B7063C00558FD8C3984353
:10208000B7060001558F98C3984393166700E3DDA8
:1020900006FEB7170240D843719BD8C3D8431367D5
:1020A0002700D8C3B71602402147DC42B18BE39E1C
:1020B000E7FE82801C4161773D077D8F9C459451EE
:1020C000D58F9449D58FD449D58F944DD58FD44D84
:1020D000D58FD451D58F9455D58FD98F1CC1DC4560
:1020E0005CC19C411CC5DC415CC5828091C51C4122
:1020F00093E717001CC182801C4141677917F98F53
:102100001CC182804CC1828048414205418182804D
:102110005C45D9C3B70601409387064003A6064035
:1021200018411347F7FF718F23A0E64083A646406E
:1021300018411347F7FF758FD8C358413E97144392
:102140001041D18E14C3944718411347F7FF758F80
:1021500098C7D44718411347F7FF758FD8C71C4558
:102160004147638CE7003707014013070740BA97E0
:1021700098431441558F98C38280B707014003A745
:1021800087401441558F23A4E74003A7C74014415B
:10219000558F23A6E74082805841B70701409387B7
:1021A00007403E9714431C4193C7F7FFF58F1CC3AC
:1021B0008280B707014023AAA74082809C4593F8FC
:1021C000F700C18B81C7DC41B3E8F800B7270240B4
:1021D000985BB707000FF98F89EF0547238DE188DA
:1021E000B7170140631BF5009E21B5839EA181EBCB
:1021F0008280B7170140630EF5009C21A1CF1041EA
:102200008147054E3D4F930E8002930F800421437A
:1022100009A883C7A189F5D3C1BF54C98507638ABB
:102220006702B316FE009A21758FE399E6FE1397B5
:1022300027003318EF001348F8FF3376C8003397B0
:10224000E800598E9845E30AD7FDE319F7FD14C954
:10225000F1B710C19A219307F00F63FCE7045041D6
:10226000A147054EBD4F130F8002930E80044143DA
:1022700031A054C90DA88507638C6702B316FE0010
:102280009A21758FE399E6FE13972700011733987B
:10229000EF001348F8FF3376C8003397E800598EF3
:1022A0009845E308E7FD9845E317D7FD14C9E1B762
:1022B00050C18280B71701406304F5000CC98280C9
:1022C00083C7A189E5DFB581D5BF83A7C18985EF24
:1022D00014213C21920793F7F70F37E700E0369778
:1022E0002300F7405C41638207121821935757007F
:1022F0008546B396E600938707048A0737E700E030
:10230000BA9794C3828003A7C1898547630CF702FB
:1023100003A7C18989476302F70603A7C1898D47CF
:102320006301F70A03A7C1899147E31DF7FA142156
:102330001C31920793F7F70F37E700E03697230039
:10234000F7404DB71831630DF70014213C21920777
:1023500093F7F70F37E700E036972300F74059B7B8
:1023600014213C21920793E707F893F7F70F37E71B
:1023700000E036972300F740B5B71C310547637579
:10238000F70214219387E7038A073821BA9793F756
:10239000F70F920793E707F893F7F70F37E700E097
:1023A00036972300F7403DBF14218A073821BA979A
:1023B000920793F7F70F37E700E036972300F740CF
:1023C00015B71C310D47636FF700142186073821BC
:1023D000BA97920793F7F70F37E700E03697230095
:1023E000F74009B714219387C70786073821BA97A2
:1023F00093F7F70F920793E707F893F7F70F37E78D
:1024000000E036972300F740F1BD1821935757009D
:102410008546B396E600938707068A0737E700E00C
:10242000BA9794C38280B7170240D843B70640FFDB
:10243000FD16758FD8C3D8435A05598DC8C38280FD
:10244000B7170240DC43B18B1147638EE706214783
:102450006381E70899C7B7177A00938707201CC1E3
:1024600031A0B7177A00938707201CC137160240A6
:102470005C429183BD8B370700201307870CBA9706
:1024800094231C41B3D7D7005CC15442A1829D8ADA
:10249000BA969422B3D6D70014C55442AD829D8A11
:1024A00036971823B3D7E7005CC558423983937633
:1024B000370013870183369718231377F70FB3D7A5
:1024C000E7021CC98280B7177A00938707201CC1D6
:1024D00071BF371702405C435843C166758FC9838B
:1024E000BD8B8907C5466381D7020DEB3747024094
:1024F00003270780418B19CB37177A001307072072
:10250000B387E7021CC19DB7C947C5B737173D0060
:1025100013070790B387E7021CC189BF3717024032
:1025200058439316E70063DA060037173D00130798
:102530000790B387E7021CC115BF37177A0013074E
:102540000720B387E7021CC115B799C537170240AA
:102550005C4B5D8D48CB8280B7170240D84B13454A
:10256000F5FF798DC8CB828099C5371702401C4F83
:102570005D8D08CF8280B7170240984F1345F5FF55
:10258000798D88CF828099C5371702405C4F5D8D69
:1025900048CF8280B7170240D84F1345F5FF798D99
:1025A000C8CF8280EFD2DFBC01112A84AE841A2901
:1025B000F577FD17F98FFA21D98F1EA95A25FD77D6
:1025C0009387379FF98FDA21D98F9A25D98FBA252A
:1025D000D98F5EA55E29C207C18393F7F7CFDA25AD
:1025E000D98F5EA96800A93DB7470140938707804E
:1025F000630CF40452475E24C207C18763C8070412
:1026000093171700BA978E07BA9798400A07B3D75F
:10261000E70213074006B3D6E7029206B3F7E702D4
:102620005A2442074187634D070292079387270385
:1026300013074006B3D7E702BD8BD58FC207C1830E
:102640001EA405616FD01FB5624775B793171700B9
:10265000BA978E07BA9798400607B3D7E70255BFD7
:102660001397370013072703930740063357F702E2
:102670001D8BB367D700D9B791C55E250967D98F80
:102680005EA582805A25F977FD17F98F5EA58280B5
:1026900009C65E29DD8D4EA982805E2993C5F5FFAE
:1026A000FD8D4EA98280B7F700E023A0070023A28A
:1026B00007008146014794C7D8C7814688CBD4CB51
:1026C0003D4798C3B7E700E0056723A0E710828085
:1026D000B7F700E023A207009387018A9843050714
:1026E00098C373002030EFD2BFA801110945EFF065
:1026F0009FD38545370580007935EFE0BFFC930710
:102700004002230CF1008547A30CF100230D0100CA
:10271000054422CE2808EFF05FBB37050400EFF038
:102720005FA9B70704003EC402C6C1473EC822CA1B
:102730002800EFF0FF9D9307A003230CF100A30CEA
:1027400001002808EFF07FB805616FD0BFA4EFD279
:102750003FA2EF10503E1522793703A5C18293079F
:10276000803E3355F5028137EFD09FD1E124EDBF94
:10277000EFD0DFB17300203037050400EFF07FA306
:1027800073002030EFD2DF9EAA842E848545114548
:10279000EFF09FDDB1CCB766004083A706C4416768
:1027A0007517F98F23A0F6C4B717014003A7478018
:1027B000B716F0FFFD16758F23A2E78003A7C78029
:1027C000F9769386F67F758F23A6E78003A7478067
:1027D000B7460400558F23A2E78039CC3747024023
:1027E0008327078093E727002320F7806FD09F9AE5
:1027F00037670040832707C493E72700C207C183D8
:102800002320F7C4B717014003A74780B716F0FF8E
:10281000FD16758F23A2E78003A7C780F9769386FC
:10282000F67F758F23A6E78003A74780B73603009E
:10283000558F23A2E78055B737470240832707808B
:10284000F59B2320F7805DB783A7C1820567130737
:1028500007FAB3D7E702B387A70299CF0147856686
:10286000938606FA0100050783A7C182B3D7D70272
:10287000B387A702E368F7FE8280EFD2DF8D5D7138
:1028800085451145EFF05FCE854537050200EFF035
:102890009FCF85450545EFF05FCB91472312F104AB
:1028A000E147BEC68D47BEC4CC00371401401305B6
:1028B0000480EFF0BF90A1472312F1049307800436
:1028C000BEC6CC0013050480EFF05F8FC1473EC841
:1028D00037440040130A444052C402CC9387411746
:1028E0003EC6130900084ACE02D002D202CA896944
:1028F0004ED602D402D82C00B70402401385040837
:10290000EFF04FFB854513850408EFF02FFE02C85A
:1029100052C402CC9387410F3EC64ACE02D002D2A7
:102920004ACA4ED6930700023ED402D82C00138523
:10293000C406EFF02FF885451385C406EFF00FFBB2
:10294000F167938707203EDA231C0102231D010251
:10295000231E0102B147231FF102231001044C186A
:1029600013050440EFF01FC405469305000C130542
:102970000440EFF0FFD1854513050440EFF0DFCFB1
:1029800061616FD09F80EFD2AFFE41112312010031
:102990005C310547638CE70213978701618719C78C
:1029A0000947638BE7022314010019A023140100D7
:1029B0005C210547638AE7061397870161871DC37A
:1029C00009476386E7062313010039A893070060CF
:1029D0007C8485677C82E9BF930700407C8485679F
:1029E0007C82F9B7231301001C21183122075D8F67
:1029F0003C21C2075D8F3C31E207D98F3EC0B14711
:102A00007C85231601001964731004808A8537457C
:102A1000004013050540EFF0FFB81304840873105D
:102A2000048041016FD00FF78D677C8375BF896784
:102A30007C835DBFEFD2CFF3B71700201387C7A801
:102A40008567BA9783D70785C207C18399EFB71700
:102A500000201387C7A88567BA9783D74789C2071D
:102A6000C1836391070E6FD0EFF237050240130563
:102A7000C506EFF06FE913040008098C83A7818A6B
:102A8000B306F4401307F003636FD700638C870627
:102A900083A6018A03A7418A6386E6066371F4026E
:102AA0001304000829A06374F4001304000833071A
:102AB000F4409306000463F4E60013840704B306AD
:102AC000F440C206C182371700201306C7A8056765
:102AD00032972317D784231807840356E7849385F6
:102AE000410FBE9513053008EFF0CFBD0D45EFF057
:102AF0002F9B1374F40723A4818A03A7018A23A2BE
:102B0000E18AB1B7B71700201387C7A88567BA97BE
:102B100083D7E784C207C18313070004E399E7F270
:102B2000B71700201387C7A88567BA97239707842C
:102B30000146814513053008EFF0CFB80D45EFF0A1
:102B40002F9631B73705024013050508EFF0CFDBAC
:102B5000E31B05F0371400209307C4A805643E94D6
:102B6000231A048803562489B71500209385E52D80
:102B700013854117EF3080368145B7040240138535
:102B80000408EFF0AFD68355248913850408EFF0CD
:102B90006FD7854513850408EFF04FD50D45EFF04D
:102BA000AF94D1B519CE1307F6FF1377F70F0507CA
:102BB0000E078147B3D6F50014A1A1070505E39BD5
:102BC000E7FE8280EFD22FD9AA892E892944894431
:102BD000CA854E85EF20D016631695007D141374B8
:102BE000F40F7DF46FD06FDAEFD28FD841112E84BD
:102BF0001146AA8568007D376C001545E137854789
:102C00006307F50081473E8541016FD0AFD811467B
:102C1000A2856800413F6C0035456D370547814707
:102C2000E313E5FE81453945713F7D159337150066
:102C3000D9BFA1476319F50003A7C18A8547630877
:102C4000B70223A6B18AEFD2AFD241112A8411462E
:102C50006800EFF03FF56C001375C400EFF09FF6CD
:102C60007D15933715003E8541016FD0AFD23E856B
:102C70008280EFD2EFCF41112A84AE84B70500FFE6
:102C80009385050FE98D21456D37AA870DC901E8A8
:102C900003A7018B85476304970223A8918A1146F5
:102CA000A6856800EFF01FF01375C4006C00136573
:102CB0001500EFF03FF1054781476306E5003E85CB
:102CC00041016FD02FCD81453945EFF0BFEF7D1524
:102CD00093371500EDB7EFD2AFC92A84AE84B7059C
:102CE0000023938525050145EFF0BFF819E16FD06A
:102CF0006FCAA6852285EFF03FEF3335A000C5BF30
:102D0000EFD20FC7411185451145EFF0FF8585458D
:102D10002145EFF07F8509492312210191473EC6E5
:102D20008D473EC44C003714014013050480EFF07A
:102D3000EFC8854464824C0013050480EFF00FC88F
:102D4000231221014C0013050480EFF02FC7648289
:102D50004C0013050480EFF06FC6930700087C82D7
:102D60004C0013050480EFF06FC5930700047C82CC
:102D70004C0013050480EFF06FC441016FD08FC188
:102D8000FD579CA1416505058280FD579CA14165C9
:102D900005058280EFD2CFBA79712A892E841C2151
:102DA00093C607087D476379D70213870706137711
:102DB000F70F9306E00563F4E602938C15009CA1DF
:102DC00075476374F7006F1040478A071967130748
:102DD0000708BA979C438287EFF09FFA11AEEFF095
:102DE000DFFA39A61C31138525001D47638DE714D2
:102DF0006378F7021307100F6388E7166378F70A02
:102E00001307E00F638EE7161307F00F0145639970
:102E1000E70893070004BCA1A3810500094549A068
:102E20000947638FE7086379F7020D476383E70A71
:102E3000114701456396E7069387018488238C3305
:102E4000B023B433D823DC3328A02CB050A054B026
:102E500078A07CB01945A9A005476392E704B7673D
:102E6000000003CE870F9387870F03C3170083C823
:102E7000270003C83700CC23D033F423F8339C2732
:102E80002301C401A300650023011501A30105016D
:102E90004CA150B174A178B11CA5254511A00145E4
:102EA00008B0B707020089073E9599A41307000FE1
:102EB0000145E397E7FE93073003BCA10545CDB775
:102EC0004946B765000093854510EF30200149451C
:102ED000C1BF371700209307873623A0070023A21E
:102EE000070023A4070023A6070023A8070023AA9E
:102EF0000700238C07001307873693058701B7F671
:102F0000FF1F9386867E1966130606129C22918304
:102F1000B2979C231CA39C22BD8BB2979C231CB30D
:102F200085060907E394E5FEB715002093878536EB
:102F3000238C070065469385853613052400EF2012
:102F4000F0796545B1BFB767000083C587119387E6
:102F500087119033B423B833DC232CA010B134A1F3
:102F600038B15CA115452DBF93070004BCA19307A0
:102F70002004BCB1BD47DCA1A382050011450DB7FB
:102F8000C147BCA1054529BF1C3191CB0547638EC4
:102F9000E702FD579CB1370502000505B9A23C21A7
:102FA000858B89CFB71701401307000223A8E7805C
:102FB000A300040037050200050505AAB717014064
:102FC0001307000223AAE780E5B73C21858B81CB5C
:102FD000B71701401307000223A8E780D1BFB71736
:102FE00001401307000223AAE780D9B71C3189CB1F
:102FF00005476387E7000947638EE7048147B9A067
:10300000B717002005472382E7328945B7140140EE
:1030100013850480EFF00FAA854513850480EFF037
:103020006FA989472312F102C1473ED68D473ED48E
:103030004C1013850480EFF06F9885472312F1023E
:103040004C1013850480EFF06F9785471CB04165E5
:10305000050561A8B717002009472382E732894593
:10306000B714014013850480EFF0CFA48545138584
:103070000480EFF02FA49305000813850480EFF07F
:103080006FA389472312F102C1473ED68D473ED434
:103090004C1013850480EFF06F9285472312F102E4
:1030A0004C1013850480EFF06F91930700082312F2
:1030B000F1024C1013850480EFF04F909307000449
:1030C0002312F102930780043ED64C10138504802E
:1030D000EFF0CF8E89479DBFB717002023820732BC
:1030E000EFF01FC2A30004000545C16485042695C6
:1030F00045616FD0AF883C21A20718315D8F9317CF
:103100001700BA979207FD17FDFFA30004003705CB
:1031100002000505D9BFB705FA05910537F500E0AE
:103120001305C5D0EFF03FBB85473CA0A3000400CA
:10313000094565BF034A1500D28A83492500442109
:10314000A2045C31C207DD8C3C31DD8C7C21E207BE
:10315000DD8C13F91900630A090093771A00F5C78B
:10316000B7170140094723A8E78013FB2900630A2A
:103170000B0093772A00E5C3B7170140054723A842
:10318000E78093FB4900638C0B0093572A00858BE3
:10319000E9CBB71701401307000823A8E780139C69
:1031A0008901135C8C4163450C0CB9CC93561A0011
:1031B00013562A0093555A00135A7A0037170140C4
:1031C00093F9090263080900832787808583858B2B
:1031D000E39AFAFE63070B0083278780858BE393CE
:1031E000F6FE63880B00832787809D83858BE31B16
:1031F000F6FC63830900F9F563580C008327878088
:103200009183858BE310FAFC3717014003268780F2
:1032100083278780832587808326878013070780FD
:103220001847858B860795819189CD8F0582058A00
:10323000D18F8D82A18AD58F0E0713770708D98F7A
:103240001CB03705060005054DB5B7170140094705
:1032500023AAE78019BFB7170140054723AAE780D3
:103260000DB7B71701401307000823AAE78005BF71
:1032700093577A0099C7B7170140414723A8E780C1
:103280002DB7B7170140414723AAE780B705FA05D4
:10329000910537F500E01305C5D0EFF0DFA331B796
:1032A0003C21A20738314207D98F1831D98F5821D4
:1032B0006207D98F8DC7375725021307F70F63763B
:1032C000F702B717002093874732054798B30547A1
:1032D000D8C3A300040037050400050539B5FD5720
:1032E0009CB137050400050509B537170020A30276
:1032F000073237A74A041307F71F3E97B357F70261
:103300008946054763F5F6000D4733D7E702B7173F
:10331000002023A4E73275BF93052500043199E00E
:10332000930400102685EF20200EA30004001385CF
:1033300074000D8105054205136515007DB31C3130
:10334000371700201307473293F63700850614AF6E
:103350008983858B1CBFA38005004165050571B37A
:10336000938A2500A38005009307250003491500D3
:10337000854C0544FD5B130C0004B7190140054B57
:103380001DA823A8698183A70980C19B93E78700B3
:1033900023A0F9805686D285EF20C00C6314090063
:1033A0006F0010780504A69AA69CD28729A0B307BF
:1033B0009A00050426947D19630A7905138A17007B
:1033C00088239377F50391E3E2879D0793D4370031
:1033D00093178501E187E3C607FA23AA698183A7CA
:1033E0000980C19B93E7370023A0F9805686D285D8
:1033F000EF204007E31D09FA23AA698183A709800A
:10340000C19B93E7370023A0F98055B7131504013A
:1034100033659501D9B9138A2500A3800500930768
:10342000250083491500854C0544FD5A130B000403
:1034300015A09D048D805286DE854A85EF00307888
:10344000B3879B00138714003A946209135989418A
:10345000634E0900FD19638E5901938B170003C950
:1034600007009374F903F1F4DA84E1B7269AA69C75
:10347000D5B7131504013365950185B913062500E9
:103480001C3137170020230FF732B9C3B7150020BE
:1034900013854532710593864532138727003A9983
:1034A00093854532014705060348F6FF23000501D1
:1034B000DAB1429705058905E31726FF3385D70062
:1034C0003686CC2E0D8F5ABA85060906E39BA6FEDA
:1034D000A30004001385170042051365150031B1E0
:1034E000B717002003C747328947631BF70018311D
:1034F000B717002093874732B8BFBC2F6367F70028
:10350000FD571CB041650505CDB63945EF10203893
:10351000EF009079A300040028A0935785003CB0E9
:10352000935705015CA0618148B04165150575BEE2
:103530001831B717002093874732D8A738312207B0
:103540003421558F9AAB583122075421558FBAAB8D
:10355000A380050037050500050541BE930715004A
:103560003ECEB717002003C747323AC885476305E8
:10357000F7028947630DF746930735003421E39F2F
:103580000608A30004002301040072473385E740C6
:1035900042051365250091BE138D3500238A018AEB
:1035A000130A3500834B250063800B4402CC014590
:1035B00002C6014BB71A0020938A4A3289493E89D4
:1035C00085AC4C102245EF10B077631E3501E30443
:1035D0000C489387418B9C2393F7F70F7D1CF5D301
:1035E0006F007047014B8547E312F5529257230055
:1035F000FD0013D78700A300ED0013D707012301B7
:10360000ED0013074D00E183A301FD00630C0B02E5
:1036100093978401E18763C507005A853A8D25A0F9
:1036200083A78A002302FD0013D78700A302ED00C1
:1036300013D707012303ED00E183A303FD005A859F
:10364000210D11A03A8D93F70401C5CB034C2A003C
:10365000220C83473A00C207336CFC0083471A00F0
:10366000336CFC0083474A00E207336CFC0093078D
:103670005A003ECA03DA2A0185889DC483D40A0110
:1036800081452245EF10D06B631D3501E38004486E
:103690009387418B9C2393F7F70FFD14F5D36F00AD
:1036A000F0468547E314F546854D1DA0E315B54763
:1036B00083A74A011257F98F6305FC26E3030A44E6
:1036C0009387418B9C2393F7F70F7D1AE39B074267
:1036D00083D40A014C102245EF109066E31835FDA3
:1036E000E38704409387418B9C2393F7F70FFD14E6
:1036F000F5D389473EC86F00D03F03DA0A0193F73C
:103700001400B5C763050B00524A02CC29A28145BB
:103710002245EF10F062631D3501E3060A329387FC
:10372000418B9C2393F7F70F7D1AF5D36F00103E62
:103730008547E31DF53CE204E18463C604005ACCEE
:103740002A8B524AC9A883A78A002300FD0013D7F9
:103750008700A300ED0013D707012301ED00E183EB
:10376000A301FD005ACC2A8B110D524A6DA04C10BA
:103770002245EF10F05C631D3501E3090A38938799
:10378000418B9C2393F7F70F7D1AF5D36F00103808
:103790008547E31DF536E204E18463C404029257D1
:1037A0002300FD0013D78700A300ED0013D7070106
:1037B0002301ED00E183A301FD00110D524A02CC6B
:1037C00099A883A78A002300FD0013D78700A300D0
:1037D000ED0013D707012301ED00E183A301FD00F4
:1037E000110D75BF631A0B0883472A00A207034710
:1037F0003A004207D98F03471A00D98F03474A007E
:103800006207D98F3ED2150A13F7040245CF23AAC7
:10381000FA00014B0545B24785073EC69387418BA9
:103820009C2393F7F70F63900712FD1B638F0B1018
:1038300093071A003ECA83440A0026C493F7240063
:10384000D5D3E3020BE003DC0A0193F7140105472B
:10385000E389E7D64C103945EF10904EE31435D983
:10386000E30A0C1E9387418B9C2393F7F70F7D1C73
:10387000F5D3014B6F00301E03DC0A014C103945B3
:10388000EF10104C631D3501E3020C289387418B28
:103890009C2393F7F70F7D1CF5D36F0030278547E6
:1038A000E316F52692572300FD0013D78700A300E7
:1038B000ED0013D707012301ED00E183A301FD0013
:1038C000110D1DB703DB0A014C102245EF105047C4
:1038D000631F3501E30B0B169387418B9C2393F7F2
:1038E000F70F7D1BF5D352CA014B6F00302285477D
:1038F000E31FF514E204E1842ACC014BE3DD04F07C
:1039000083A78A002300FD0013D78700A300ED00E2
:1039100013D707012301ED00E183A301FD00110D81
:10392000DDBD524A02CCC5BD150A11A0150AFD1B0A
:10393000638D0B0083470A0013F7270065DBC18BFB
:10394000E5F7050AEDB7E3970BFE8547630FF50032
:10395000B2471CB028A0F2473305FA404205B30C29
:103960009D41336595016FF04FF863090B04B7175C
:10397000002083D4473309494C103945EF10503C9F
:10398000631B2501F1D49387418B9C2393F7F70F99
:10399000FD14FDD375BF8547E31CF5FA925723004C
:1039A000FD0013D78700A300ED0013D70701230103
:1039B000ED00E183A301FD00110D59BFE247C9DB12
:1039C000B717002083D44733094981453945EF10A3
:1039D0003037E31F25F7ADDC9387418B9C2393F7AA
:1039E000F70FFD14FDD3ADB75EC65E8595B7938D19
:1039F0003500238A018A1831B71700209387473290
:103A0000B8BFBC2F637EF73E93043500834B25007F
:103A1000638D0B3E02C602CA014A371D0020130DFA
:103A20004D328949C5A2A94752476317F7024C1086
:103A30003945EF1040242A8763143503E3820A0ACC
:103A40009387418B9C2393F7F70FFD1AEDD3A9477A
:103A50003ECA814A6F0010092945EF005063C1BF7B
:103A6000A9473ECA014A85476319F77E92572380CA
:103A7000FD0013D78700A380ED0013D70701238132
:103A8000ED0013874D00E183A381FD0063080A7EEA
:103A900093178B01E18763C90700BA8D137B0B0174
:103AA00063140B7EE24491A283278D002382FD00E4
:103AB00013D78700A382ED0013D707012383ED00FE
:103AC000E183A383FD00A10DD1BF6285EF00305CCF
:103AD0006F00407E85476305F5028DA08547E31E94
:103AE000F50283274D011257F98F630EFB22638F76
:103AF0000A049387418B9C2393F7F70FFD1AA1E7E4
:103B000083540D014C102245EF10E0162A87E3176D
:103B100035FD81C89387418B9C2393F7F70FFD14E4
:103B2000F5D3B717002083A787339256F58F6387A5
:103B30006701C24713E707011377F70F62CAE24430
:103B4000639C0B1EA1A485473EC8E5B785473EC8C8
:103B5000CDB7D2476317FC0283540D01814522453E
:103B6000EF1060112A8A63123503638A046E93870B
:103B7000418B9C2393F7F70FFD14EDD32A87014A5D
:103B800075BF6285EF00B050C1BF8547631CF56CFF
:103B9000620B135B8B4162CAE246B68463570B0427
:103BA00083278D002380FD0013D78700A380ED00BD
:103BB00013D707012381ED00E183A381FD00910D5F
:103BC0002DA0631A0A08BC20A207B8304207D98F7B
:103BD0009830D98FD8206207D98F3ED295041377B9
:103BE0000B0279CB232AFD00014AB24785073EC666
:103BF0009387418B9C2393F7F70F63970714FD1B63
:103C000063870B14938714003ECC03CB04005AC483
:103C1000137C1B00290C93772B00C5D763010A6620
:103C2000835A0D01D247E39087E193770B01E39C20
:103C300007DE4C102245EF1000042A87E31535E318
:103C4000638E0A689387418B9C2393F7F70FFD1AC5
:103C5000EDD3D28A41ADA94752476316F702835A82
:103C60000D014C103945EF1000012A87631135030F
:103C7000638D0A5E9387418B9C2393F7F70FFD1AA0
:103C8000EDD3294C65BD2945EF007040C9BF85477C
:103C9000631FF55C92572380FD0013D78700A38034
:103CA000ED0013D707012381ED00E183A381FD001F
:103CB000910DA9473ECA01BFD2476317FC02035AC0
:103CC0000D014C102245EF00107B2A87631235034B
:103CD00063010A5A9387418B9C2393F7F70F7D1A50
:103CE000EDD326CC014A99BD6285EF00503AC1BFA1
:103CF00085476312F558620B135B8B4162CA014A18
:103D0000E3550BEE83278D002380FD0013D787003A
:103D1000A380ED0013D707012381ED00E183A38188
:103D2000FD00910DD9B562CAE244C1B5950411A058
:103D30009504FD1B63890B049C2093F62700EDDAA4
:103D4000C18BEDF78504F5B70547E3970BFEA9474F
:103D50005247631AF704630F0A06B717002003D906
:103D60004733094A4C103945EF00F0702A87631039
:103D70004505630D09009387418B9C2393F7F70F4B
:103D80007D19EDD321A08547E303F7FCB2471CB0B2
:103D900038A0F2473385F4404205B38C9D4133652A
:103DA00095016FF08FB42945EF00702E6DB78547F0
:103DB000E31EF5FC92572380FD0093D68700A38075
:103DC000DD0093D607012381DD00E183A381FD009F
:103DD000910D6DBFB717002003D94733094A8145BC
:103DE0003945EF0050692A87E31245FBE30009FAE1
:103DF0009387418B9C2393F7F70F7D19EDD379B708
:103E000093042500014702C651B75E875EC6BDBF59
:103E1000950711A09507FD16638506F6982313767E
:103E200027006DDA418B6DF78507F5B7B7170020CE
:103E300083C747320547638DE70009476384E71866
:103E4000A380050023810500A38105000D45C9ACB1
:103E500093844500238A018A034C3500220C3C21BF
:103E6000336CFC0063070C145C213E8A13F72700B7
:103E700011EB130D5500814BB71D0020938D4D3272
:103E8000894A7DA0858B95CBB717002083DB47330C
:103E9000894981455285EF10A06A631D3501638A07
:103EA0000B0C9387418B9C2393F7F70FFD1BF5D3E6
:103EB000814BC1A085476311F5107D1C814B371DD7
:103EC0000020130D4D32894A854D0DA893771A00B5
:103ED00085CB394A35A0631EB50992579CA013D7EC
:103EE000870098B013D70701B8A09104E183A38F8E
:103EF000F4FE850B7D1CFD57630DFC06E3080CFCEE
:103F000083590D014C105285EF108063E31555FD68
:103F1000638109069387418B9C2393F7F70FFD1963
:103F2000F5D381A885476316F504850B630D7C05E1
:103F300083471D00A20703472D004207D98F03477F
:103F40000D00D98F03473D006207D98F3ED2110D76
:103F500083D90D014C105285EF10805EE31455FD9E
:103F6000638909009387418B9C2393F7F70FFD1911
:103F7000F5D3A300740193DB8B002301740128B0F7
:103F80003385944171AAB717002083D94733094A72
:103F900081453945EF10C05A631245036382090217
:103FA0009387418B9C2393F7F70FFD19F5D3E28B91
:103FB000C9B76285E28B75BF814B65BFE28B55BF88
:103FC000E28B45BF93844500238A018A1831B717D5
:103FD000002093874732B8BFBC2F637AF718034D90
:103FE0003500220D3C21336DFD0063050D1883491A
:103FF00045004E8A93F71900A9073EC43E85EF009D
:10400000100993F92900639B0900130C5900014B17
:10401000B71D0020938D4D32894A4DA8B717002057
:1040200003DB4733894981455285EF00D044631D46
:104030003501630E0B0C9387418B9C2393F7F70F8D
:104040007D1BF5D3014BE1A085476318F5127D1D5B
:10405000014B371C0020130C4C32894A854D2DA88A
:10406000394AA2472947638BE7022945EF0030020E
:1040700035A0631EB50992579CA013D7870098B04E
:1040800013D70701B8A09104E183A38FF4FE050BB9
:104090007D1DFD57630DFD06E3040DFC83590C01E6
:1040A0004C105285EF00303DE31555FD6381090644
:1040B0009387418B9C2393F7F70FFD19F5D381A8C4
:1040C00085476316F504050B63056D0783471C00E0
:1040D000A20703472C004207D98F03470C00D98F52
:1040E00003473C006207D98F3ED2110C83D90D01E2
:1040F0004C105285EF003038E31455FD63890900F8
:104100009387418B9C2393F7F70FFD19F5D3A300F9
:104110006401135B8B002301640128B03385944153
:1041200083474900898BA5C3B7040400458D6FE020
:10413000DFFBA94722476318F702B717002083D98E
:104140004733894A81453945EF00F03263195503F9
:10415000638909029387418B9C2393F7F70FFD191D
:10416000F5D36A8B6DB72945EF006072F9B7014549
:10417000014B71BF6A856A8B59BF014B49BF6A8B7E
:1041800079B76A8B69B783443900A2048347290051
:10419000DD8C8504CA04458D6FE03FF5B71700201C
:1041A00083C747320547638CE7000947638FE702FF
:1041B000FD579CB13705050005056FE01FF33C3145
:1041C000A20758214207D98F3821D98F5831620769
:1041D000D98F3ED24C100145EF108036A300040069
:1041E0003705050005056FE05FF01831B7170020AF
:1041F00093874732B8BFBC2F6369F700FD579CB166
:104200003705050005056FE05FEE21454925834729
:104210003900A207034749004207D98F0347290005
:10422000D98F0345590062055D8DD12EA30004008E
:104230003705050005056FE05FEBFD571CA04165E4
:1042400005056FE0FFEA528BD1A052CAC1A052CA45
:10425000014B6DA8628B094555A8524CC5B02A8701
:10426000268AE9B82A87014AD1B8294CC1B8294C15
:10427000F1B026CCE1B026CC014AC9B0BA8D937713
:104280000B01014AE387078C03CB2400220BBC30CF
:10429000C207336BFB009C30336BFB00DC20E20772
:1042A000336BFB00938754003ECC835A2D01D247D9
:1042B000E31DFC8083540D0181452245EF00B01BB6
:1042C0002A87E3193581E38B04869387418B9C23EE
:1042D00093F7F70FFD14EDD36FF05F86D28A19A024
:1042E000A9473ECA524C568A09476FF03F85894715
:1042F0003EC8B717002083A787331257F98F63078B
:10430000FC00C24713E507011375F50F524A63938A
:104310000BE26FF0EFE32AC8E9BF2AC86FF07F8095
:1043200023AA698183A70980C19B93E7370023A053
:10433000F9806FF02F87EFB2BFE34111B71700206C
:104340009387473223800700238607001307400620
:104350009AAB2399070023AA0700054798AFA38CBF
:104360000700238D0700A38007001947D8C3EFE09B
:104370003F991309000223122101C14426C68D472B
:104380003EC44C003714014013050480EFD01FE3F6
:10439000231221014C0013050480EFD03FE2C145F8
:1043A00013050480EFD01FF16482D1473EC64C0054
:1043B00013050480EFD09FE041016FB0BFDD1373A0
:1043C000F5036314030013030004937705049DCFE2
:1043D000B7170140054723A8E7806306030C411186
:1043E00022C626C44AC24EC0937305088149A1441F
:1043F0003714002013044432371801401308088092
:1044000093020008094FFA8F1D4995A0B717014084
:10441000054723AAE780D1B7232A5800232AF801A9
:10442000F287FD17FDFF83278800998313F7170094
:104430002328E801F287FD17FDFF93D818000581B6
:10444000931777005D8DB307D300FD166389D601FE
:104450009DCE93F71800E9D323285800C1B776837F
:104460006385030008A276830506630803028505B9
:1044700083C8F5FF630B0300032E4400930E83FFF4
:104480009A86014533036940E9B71A85A687638692
:1044900003003355F500CE8EF1B73244A2441249E1
:1044A0008249410182808280B7170140054723A8D5
:1044B000E780094723AAE780B717002083A6873241
:1044C000B687FD17FDFFB7170140094723A8E7800E
:1044D000B687FD17FDFFB7170140054723AAE78000
:1044E000094723AAE780B687FD17FDFFB7170140EC
:1044F000094723A8E780B687FD17FDFFB7170140DE
:10450000094723AAE780B687FD17FDFFB7170140CB
:10451000094723A8E78036857D157DFDB717002064
:1045200083C7F73395C337160140130606808945C4
:104530002E88232A060136877D177DFF0CCA368711
:104540007D177DFFFD17F5F7FD4537160140130672
:1045500006800948C288232A1601B687FD17FDFF89
:1045600018469357670013F7170023280601B687EC
:10457000FD17FDFF9317F701C98F13D51700FD1520
:10458000F9F9B7170140054723A8E780094723AA8F
:10459000E780B687FD17FDFF371601408327868029
:1045A000998313F7170089472328F680B687FD17EC
:1045B000FDFF9317F7015D8DB7170140094723AA47
:1045C000E780B687FD17FDFFB7170140094723A80D
:1045D000E780B687FD17FDFFB7170140054723AAFF
:1045E000E780094723AAE780B687FD17FDFFB717C5
:1045F0000140094723A8E780FD16FDFE8280B7171A
:104600000140054723A8E780094723AAE780B71799
:10461000002003A68732B287FD17FDFFB7170140C0
:10462000094723A8E780B287FD17FDFFB7170140B0
:10463000054723AAE780094723AAE780B287FD1729
:10464000FDFFB7170140094723A8E780B287FD1790
:10465000FDFFB7170140094723AAE780B287FD177E
:10466000FDFFB7170140094723A8E780B287FD1770
:10467000FDFFB717002003C7F73315C3B716014076
:104680009386068089452E8823AA0601B287FD17E6
:10469000FDFF8CCAB287FD17FDFF7D1775F7B717B1
:1046A00001401307000823AAE780094723AAE780EF
:1046B000B287FD17FDFFB7170140094723A8E78020
:1046C000B287FD17FDFFB7170140094723AAE7800E
:1046D000B287FD17FDFFB7170140094723A8E78000
:1046E000B287FD17FDFFB7170140094723AAE780EE
:1046F000B287FD17FDFFB7170140094723A8E780E0
:10470000B287FD17FDFFFD463717014013070780ED
:104710009308000889452E8839A8232A1701232ADF
:104720000701B287FD17FDFF0CCBB287FD17FDFF18
:104730000581FD1699C693771500E5D32328170147
:10474000F9BFB717002093874732B42FBC3F9D8E27
:1047500085476386F60E058961CDB71701401307BB
:10476000000823A8E780B7170140094723AAE7807C
:10477000B717002003A78732BA87FD17FDFFB717C9
:104780000140094623A8C780BA87FD17FDFFF91627
:104790008DC2371601401306068089452E8548CA0A
:1047A000BA87FD17FDFF0CCABA87FD17FDFFFD167E
:1047B000FDF6B7170140854623A8D780894623AA6E
:1047C000D780BA87FD17FDFFB7170140894623A898
:1047D000D7807D177DFFB7170140094723AAE780DF
:1047E000B717002083A787323E877D177DFF3717D5
:1047F000014089462328D7803E877D177DFF3717E4
:1048000001408546232AD7808946232AD7803E87C0
:104810007D177DFF3717014089462328D780FD1774
:10482000FDFFB71701401307000823A8E780828027
:10483000B71701401307000823AAE7802DB7B71761
:104840000140054723A8E78005891DC9B717014026
:104850001307000823A8E780B7170140094723AAD8
:10486000E780B717002083A787323E877D177DFF3B
:104870003717014089462328D780FD17FDFFA1BFC8
:10488000B71701401307000823AAE780F1B7B7174D
:10489000002083C7573263850716B7170140854646
:1048A00023A8D780094723AAE78023A8E78023AA63
:1048B000E78023A8E78023AAD78023AAE78023A83C
:1048C000E78023AAE78023A8E7801307000823A82E
:1048D000E780B717002093874732B83F21070607C4
:1048E000BA97DE2B91CB3717014013070780894613
:1048F00054CB14CBFD17EDFFB71700209387473239
:10490000B83FBA97D82F7D1705C7B71701409387CF
:10491000078013060008894639A0D0CBD4CB94CBAE
:1049200005817D1711C793751500E5D990CBFDB7AB
:10493000B717002093874732B83F41070607BA9759
:10494000DE2BD9C3058935C9371701409306000806
:104950002328D780371701408946232AD780232868
:10496000D780930600082328D780FD1791CB3717EF
:10497000014013070780894654CB14CBFD17EDFF88
:10498000B7170140054723A8E780094723AAE78016
:1049900023A8E780B7170140094723AAE78023A887
:1049A000E780854623AAD78023AAE78023A8E7804B
:1049B0001307000823A8E780828037170140930679
:1049C0000008232AD78079B7B7170140054723A8E5
:1049D000E780058919CDB71701401307000823A800
:1049E000E780B7170140094723AAE78023A8E7809B
:1049F00055B7B71701401307000823AAE780D5B7BA
:104A0000B7170140054723A8E780094723AAE78095
:104A1000B717002083A787323E877D177DFF3717A2
:104A2000014089462328D7803E877D177DFF3717B1
:104A300001408946232AD7803E877D177DFF37179F
:104A4000014089462328D7803E877D177DFF371791
:104A500001408546232AD7808946232AD7803E876E
:104A60007D177DFF3717014089462328D7803E8771
:104A70007D177DFF371701408946232AD7803E875F
:104A80007D177DFF3717014089462328D7803E8751
:104A90007D177DFF37170140930600082328D78034
:104AA0003717002013074732343FA1068606369792
:104AB0005A2B15C3371601401306068089452E88E8
:104AC000232A0601BE86FD16FDFE0CCABE86FD1613
:104AD000FDFE7D1775F73717002013074732343F67
:104AE0003697542FFD168DCE3717014013070780D8
:104AF000930500080948C28839A84CCB232A17011E
:104B00003E867D167DFE232807013E867D167DFEAE
:104B10000581FD1691C61376150065D20CCBF9BF41
:104B2000B717002093874732B83F41070607BA9767
:104B3000DA2B51CF058949C5B71701409306000804
:104B400023A8D780B7170140894623AAD780B71773
:104B5000002083A78732BE86FD16FDFEB7160140F2
:104B6000094623A8C680BE86FD16FDFEB716014085
:104B70001306000823A8C680938606807D1711CFF0
:104B8000368689452E8548CABE86FD16FDFE0CCAAE
:104B9000BE86FD16FDFE7D177DF737170140854661
:104BA0002328D7808946232AD7803E877D177DFF1B
:104BB0003717014089462328D780FD17FDFF81A8BC
:104BC000B71701409306000823AAD780A5BFB717DF
:104BD0000140054723A8E780058959C5B71701405B
:104BE0001307000823A8E780B7170140094723AA45
:104BF000E780B717002083A787323E877D177DFFA8
:104C00003717014089462328D780FD17FDFFB717C6
:104C10000140094723AAE780B717002083A78732FE
:104C20003E877D177DFF3717014089462328D780AF
:104C30003E877D177DFF371701408546232AD780A1
:104C40008946232AD7803E877D177DFF371701408D
:104C500089462328D780FD17FDFFB71701401307AA
:104C6000000823A8E7808280B717014013070008D7
:104C700023AAE78095BFB717002083C75732638305
:104C8000072EB7170140854623A8D780094723AAD6
:104C9000E78023A8E78023AAD78023AAE78023A858
:104CA000E78023AAE78023A8E780B717002083C7FF
:104CB000F73391CB3717014013070780894654CB50
:104CC00014CBFD17EDFF93571500858BF5C7B7176C
:104CD00001401307000823A8E78037160140094761
:104CE000232AE680832786802328E6801306068011
:104CF000958393F6270093572500858BE9C7130703
:104D0000000818CAB7170140094623AAC78003A79D
:104D100087801983058B23A8C78093573500858B1F
:104D2000D5CBB71701401306000823A8C780371654
:104D300001400948232A068183278680232806818B
:104D4000130606809183918BD58F5D8F8547630A0B
:104D5000F708854614CA894654CA14CAB7170140D1
:104D6000894623AAD78023A8D780054623AAC780CF
:104D700023AAD78023A8D7809306000823A8D7802A
:104D80001375050809C5B717002023A60732B71702
:104D9000002083C607339387F6FF81CEB716014004
:104DA000938606800946FD55D0CA90CAFD17E39D3B
:104DB000B7FE1375F70F8280B7170140130700087D
:104DC00023AAE78019BFB71701401307000823AAD9
:104DD000E7800DBFB71701401306000823AAC7805C
:104DE000B9B793772500D5C77D460148B71601406E
:104DF00093860680894823AA16019C4623A816019B
:104E00009983FE07B3E7070113D817007D1665F6EF
:104E1000B717002093874732B42FBC3F9D8E85473C
:104E2000638AF604371601408948232A16818327AE
:104E300086809983858B23281681F91699CA37169F
:104E4000014013060680232A160123281601FD16A9
:104E5000FDFAB7160140054623A8C680094623AAD5
:104E6000C68023A8C680E38B05EEFE07B3E70701E3
:104E70009CC1EDB5B7160140854723A8F6800946C9
:104E800023AAC68083A786809983858B23A8C680A2
:104E9000D9BF94417D46B717014093870780130817
:104EA0000008894501A823A80701CCCB8CCB8582BB
:104EB0007D1601CA93F81600E39708FE23AA07019E
:104EC000EDB737160020130646323C2E303E918F48
:104ED0000546638DC704858AB9C2B716014013061B
:104EE000000823A8C680B7160140094623AAC68039
:104EF00023A8C680F91789CBB71601409386068090
:104F0000D0CA90CAFD17EDFFB7170140854623A808
:104F1000D780894623AAD78023A8D78081B5B71622
:104F200001401306000823AAC68075BFB7170140C9
:104F3000054623A8C780858A99CEB71701409306F6
:104F4000000823A8D780B7170140894623AAD78035
:104F500023A8D78021B5B71701409306000823AADC
:104F6000D780D5B7B7170140054723A8E780094781
:104F700023AAE780B717002083A787323E877D17D3
:104F80007DFF3717014089462328D7803E877D174C
:104F90007DFF371701408546232AD7808946232A7B
:104FA000D7803E877D177DFF37170140894623282C
:104FB000D7803E877D177DFF371701408946232A1A
:104FC000D7803E877D177DFF37170140894623280C
:104FD000D7803E877D177DFF371700200347F733C3
:104FE0001DC337160140130606800948C288232ACC
:104FF0001601BE86FD16FDFE23280601BE86FD169F
:10500000FDFE7D176DF793571500858B6383071899
:10501000B71701401307000823A8E780B71701401E
:10502000094723AAE780B717002083A787323E8766
:105030007D177DFFB716014003A786801983058B76
:10504000094623A8C680BE86FD16FDFE131817006C
:1050500013572500058B6305071437170140930686
:1050600000082328D780371701408946232AD78094
:105070003E877D177DFF3717014003268780198201
:10508000058A89462328D7803E877D177DFF1357E1
:105090003500058B630D0710371701409306000894
:1050A0002328D780371701408946232AD7803E8797
:1050B0007D177DFFB716014003A786801983058BF6
:1050C000894823A81681BE86FD16FDFE0A073367B0
:1050D0000701598E05476303E60E371701408546E1
:1050E0002328D7808946232AD7803E877D177DFFD6
:1050F0003717014089462328D780FD17FDFFB717D2
:105100000140094723AAE780B717002083A7873209
:105110003E877D177DFF3717014089462328D780BA
:105120003E877D177DFF371701408546232AD780AC
:105130008946232AD7803E877D177DFF3717014098
:1051400089462328D7803E877D177DFF371701408A
:10515000930600082328D7801375050809C537175B
:1051600000202326073237170020834607337D5857
:10517000371501408945FD1663850629232AB58028
:105180003E877D177DFF2328B5803E877D177DFFF5
:10519000DDB7B71701401307000823AAE780BDBD9C
:1051A0003717014093060008232AD7806DBD3717B3
:1051B000014093060008232AD780EDB51377250018
:1051C000630807107D43B718014093880880094E93
:1051D000F28E23AAD8013E877D177DFF03A78800A2
:1051E0001983058B23A8C8013E887D18E31F08FE9C
:1051F0007E07558F935617007D13E31C03FC37176A
:105200000020130747328348A701383FB388E8409E
:1052100005476383E808371701400948232A0781B7
:105220003E877D177DFF371801400327888019834B
:10523000058B0943232868803E887D18E31F08FEFC
:10524000F918638708023713014013030380094EDE
:10525000F28E232AD3013E887D18E31F08FE2328FF
:10526000C3013E887D18E31F08FEFD18E39308FE86
:10527000371801408548232818818948232A188136
:105280003E887D18E31F08FE37180140894823280F
:105290001881FD17FDFF3DA0371701400548232861
:1052A00007810948232A07813E877D177DFF37182C
:1052B0000140032788801983058B8948232818819A
:1052C000FD17FDFFE38D05E27E07558F98C105BDF3
:1052D0008C417D4837170140130707809308000869
:1052E00009431A8E0DA0232A1701232AC701BE865F
:1052F000FD16FDFE23286700BE86FD16FDFE858196
:105300007D186308080093F61500F1DE23281701C5
:10531000E9BF3717002013074732342F383F998EE3
:105320000547638CE6088589D1C1B717014013078B
:10533000000823A8E780B7170140094723AAE780A0
:10534000B717002003A78732BA87FD17FDFFB717ED
:105350000140894523A8B780BA87FD17FDFFF916DC
:105360009DC2B7150140938505800948C28823AACC
:105370001501BA87FD17FDFF23A80501BA87FD17A0
:10538000FDFFFD16EDF6B7170140854623A8D7802F
:10539000894623AAD780BA87FD17FDFFB7170140BA
:1053A000894623A8D7807D177DFF91BBB7170140A1
:1053B0001307000823AAE780BDBF371701408546C1
:1053C0002328D78085899DC537170140930600089B
:1053D0002328D780371701408946232AD7803E8764
:1053E0007D177DFF3717014089462328D780FD1799
:1053F000FDFF31B33717014093060008232AD780F9
:10540000D1BF1375F60F82801308F5FF39C9B7179E
:10541000002003A587328146014737160140130655
:105420000680854E8948468E7D5315A0232AD601D5
:10543000232AC601AA87FD17FDFF23281601AA8784
:10544000FD17FDFF0583FD167D18630C680081E6DE
:1054500098218505A14693771700E9DB2328D6011B
:10546000C1BF82809376F503DDC61375050811CDA3
:1054700021458145371801401308088009431A8ED9
:10548000B71800209388483229A8D9EA8280930669
:105490000004F9BF930716000CA295CE3E86AA859C
:1054A0002145232AC80183A748003E877D177DFF39
:1054B00003278800058B23286800FD17FDFF8581E1
:1054C00093177700DD8D7D15FD1669D5F9FAB3D7F1
:1054D000A5001CA28280828023AA650023AA150150
:1054E000AA87FD17FDFF23A80501AA87FD17FDFF69
:1054F00005827D17FD1609CB99C693771600E9DF63
:1055000023A86500E1BF828091C603460E00050E08
:105510002147E5B782801375050835F99306000425
:10552000138E15009021B717002003A5873221475D
:10553000B71501409385058005430948C28875BFAA
:10554000B717002083C757326388073CB71701405D
:10555000054723A8E780094723AAE78023A8E78017
:105560009377150063800718B7170140054723A8F4
:10557000E780B7170140094723AAE78023A8E780FF
:105580009357150013F717006304071637170140E8
:1055900085462328D780371701408946232AD7809C
:1055A0002328D78013572500BA97058B6308071463
:1055B0003717014085462328D78037170140894691
:1055C000232AD7802328D780AA979356350013F72C
:1055D0001600630B07123717014005462328C780C2
:1055E000371701400946232AC7802328C78013079D
:1055F0000780B697858B638F0710BA87054798CBCE
:10560000B7160140094723AAE68023A8E68005468D
:1056100023AAC68023AAE68023A8E68023A8C68002
:1056200023AAE68023A8E68023A8C68083A7068055
:10563000C19B93E7870023A0F680B717002083C79C
:10564000C73391CB3717014013070780894654CBE6
:1056500014CBFD17EDFF371701408946232AD78069
:10566000032887802328D780232AD7808327878011
:105670002328D780232AD780032687802328D78012
:1056800013F717000607937716008A075D8F937745
:1056900018005D8F85476305F7089307E7FFF59BC3
:1056A0006380071EB717002083C7C733938717028D
:1056B000B7160140938606800946D0CA90CAFD17E6
:1056C000EDFFB7160140854523AAB68083A7068063
:1056D000C19B93E7370023A0F68023A8B6801375FB
:1056E000F70F8280B7170140054723AAE78051B51D
:1056F000371701408546232AD78071BD37170140EF
:105700008546232AD78055BD371701400546232AF1
:10571000C780F9B5B7170140054723AAE780CDB583
:1057200093772500E9C713080002814681483716A0
:105730000140130606800943232A66001C46858B18
:1057400023286600BE988582FE07DD8E7D18E3154E
:1057500008FEB7170140094623AAC78003A887801F
:1057600023A8C780B3C8080193F818006383080012
:10577000214791C194C1B717002083C7C73391CB8C
:10578000B7160140938606800946D0CA90CAFD1715
:10579000EDFFB7160140054623AAC68083A7068001
:1057A000C19B93E7370023A0F6801375050809C550
:1057B000B717002023A60732B717002083C7073387
:1057C00099CFB7160140054623AAC680B7160140F7
:1057D000938606800946D0CA90CAFD17EDFFB71719
:1057E0000140854623A8D7801375F70F8280B7172D
:1057F000002083C7C73391CBB7160140938606803C
:105800000946D0CA90CAFD17EDFFB71601400546FC
:1058100023AAC68083A70680C19B93E7370023A0F5
:10582000F6809C411306000281459386068005435D
:10583000094819A823AA660023AA060123A806017D
:10584000BE9585837D1601CA93F81700E38408FE90
:1058500023A86600D5B7858991CDB7170140854645
:1058600023A8D780B7170140894623AAD78023A849
:10587000D78025BFB7170140854623AAD780DDB75B
:10588000B717002083C7D73399CF9377250081CFEF
:1058900093071002B7160140938606800946D0CAC6
:1058A00090CAFD17EDFFB717002083C7C73391CB10
:1058B000B7160140938606800946D0CA90CAFD17E4
:1058C000EDFFB7160140054623AAC68083A70680D0
:1058D000C19B93E7370023A0F680B717002083C74A
:1058E000D7339DC309890DE1B7170140854623AA27
:1058F000D78093071002B7160140938606800946A9
:10590000D0CA90CAFD17EDFFB7170140854623A8FE
:10591000D7801375F70F8280B7170140054723A87A
:10592000E780094723AAE780B717002083A78732BB
:105930003E877D177DFF3717014089462328D78092
:105940003E877D177DFF1377150063020728371701
:10595000014085462328D780371701408946232AEE
:10596000D7803E877D177DFF371701408946232862
:10597000D7803E877D177DFF13571500937617005C
:10598000638D0624B7160140054623A8C680B716C6
:105990000140094623AAC680BE86FD16FDFEB71645
:1059A0000140094623A8C680BE86FD16FDFE93561B
:1059B00025003697858A63880622B716014005467A
:1059C00023A8C680B7160140094623AAC680BE8612
:1059D000FD16FDFEB7160140094623A8C680BE8607
:1059E000FD16FDFE2A971356350093761600638246
:1059F0000620B7160140054823A80681B7160140C6
:105A0000094823AA0681BE86FD16FDFEB716014091
:105A1000094823A80681BE86FD16FDFE3297058B38
:105A2000630F071C3717014085462328D780371797
:105A300001408946232AD7803E877D177DFF37178F
:105A4000014089462328D7803E877D177DFF371781
:105A500001408546232AD7808946232AD7803E875E
:105A60007D177DFF3717014089462328D7803E8761
:105A70007D177DFF3717014085462328D78089464B
:105A8000232AD7803E877D177DFF3717014089463F
:105A90002328D780FD17FDFF3717014085462328AF
:105AA000D78083270780C19B93E787002320F78057
:105AB000B717002083C7C7339DC7371700200326B9
:105AC0008732B7160140938606800948C28823AA08
:105AD000160132877D177DFF23A8060132877D17C7
