:020000040800F2
:10000000D80400201D010008610F0008F90A00084B
:100010005D0F00089D0A0008A915000800000000F7
:100020000000000000000000000000008113000834
:10003000A10A0008000000007F13000885130008D3
:1000400037010008370100083701000837010008B0
:1000500037010008370100083701000837010008A0
:100060003701000837010008370100083701000890
:100070003701000837010008370100083701000880
:100080003701000837010008370100083701000870
:100090003701000837010008370100083701000860
:1000A0003701000837010008370100083701000850
:1000B000370100085914000837010008370100080B
:1000C0003701000837010008370100083701000830
:1000D0003701000837010008370100083701000820
:1000E0003701000837010008370100080000000050
:1000F0000000000000000000000000000000000000
:1001000037010008DFF810D000F05CFC0048004721
:1001100095280008AFF30080D804002006488047E7
:1001200006480047FEE7FEE7FEE7FEE7FEE7FEE7DC
:10013000FEE7FEE7FEE7FEE78D1300080501000875
:10014000F0B480EA0102D40F4200B2EB410F02D2B8
:100150000246084611464A0042D0C30DDDB2C1F343
:10016000C752AD1A202D35DAC1F3160141F4000251
:1001700004B15242C5F1200602FA06F12A411044A8
:10018000B3EBD05F23D0C4B1012DA0EBC35009DC89
:10019000F0BC4FF0004202EAC352DBB200F50000AF
:1001A00000F029BB400000F1807000EBC350A0F1CB
:1001B000807040EAD170490009E0490841EAC07105
:1001C000A0EBC35000F50000400800EBC350F0BCAA
:1001D00000F008BB6142012202EB4101001BF6E77F
:1001E000F0BC704781F00041AAE780F00040A7E72B
:1001F00080EA010210B502F00043400022D04A001C
:100200001FD0010E01EB1261C0F35600C2F356027B
:1002100040F4000042F40002A0FB022000047F39F9
:10022000140400D0401C50EA124001D44000491E82
:10023000C2B20C0604EBD010401C4008802A02D049
:1002400003E0002010BD20F00100002900DA0020AA
:10025000184310BD30B480EA010202F0004530F0CE
:10026000004221F0004013D090B1C30DD40DC2F371
:100270001601C0F31600E41A41F4000140F4000234
:100280007D34914201D3641C00E04900002C02DA65
:1002900030BC002070474FF400000023914201D38E
:1002A000891A034340084FEA4101F7D151B1914205
:1002B00002D14FF0004105E002D24FF0010101E010
:1002C0006FF0010103EBC450284430BC00F08ABA3F
:1002D0002DE9FE4F804681EA0300C00F0C460090D6
:1002E00021F0004123F00045B8EB0200A94105D2FE
:1002F0004046214690461C460B46024623F00040ED
:10030000104347D0270DC7F30A00C3F30A510290E8
:10031000401A019040286BDAC3F3130040F4801BAD
:100320000098924620B10023D2EB030A63EB0B0B3B
:1003300001985946C0F14002504600F032FA064694
:100340000D4650465946019A00F03AFA10EB080063
:100350006141002487EA115284EAE7731A4340D0CE
:10036000009A62B3019A012A4FEA075215DC001B7A
:1003700061EB02014FF0004202EA0752CDE9004270
:10038000001C41F5801132462B4600F071FA03B093
:10039000BDE8F08F40462146F9E7001B61EB020102
:1003A000001C41F5801300185B412018A2F50017CE
:1003B00047EB030140EAD570B6196D4111E06D08B5
:1003C0004FEA360645EAC0754FEA0752001B61EB5B
:1003D0000201001C41F5801149084FEA3000001964
:1003E000514132462B4603B0BDE8F04F00F031BA20
:1003F0000098012240000023D0EB020263EBE0737F
:10040000009821464FEAE074B8EB000061EB04016C
:10041000E9E783F000435BE781F0004158E72DE90D
:10042000FE4F81EA030404F0004421F000410094EF
:100430004FF0000B23F0004350EA01045ED052EA73
:1004400003045BD0C3F30A54C1F30A552C44A4F24D
:10045000F3340194A0FB0254C1F3130141F4801161
:10046000C3F3130343F4801301FB024400FB034E68
:10047000840A970A44EA815447EA8357A4FB076831
:1004800002958D0A05FB07854FEA932C04FB0C545B
:100490002705029D4FEA065847EA1637B5EB0805CF
:1004A0006EEB070C870E920E47EA811742EA831221
:1004B000A7FB0201B6EB0B0164EB00042B0D43EA32
:1004C0000C335E1844EB1C50DA465146E7FB020140
:1004D000C5F313044FEA0B3343EA14534FEA0432D3
:1004E000019C43EA0603A4F10C040294009CCDE9AC
:1004F00000B400F0BDF903B0BDE8F08F0020014664
:10050000F9E72DE9F04D81EA030404F0004B21F0F6
:10051000004514464FF0000A23F0004150EA05025E
:1005200020D054EA01021DD0C5F30A570246C5F394
:100530001303C1F31300C1F30A5640F4801543F4CA
:100540008013A7EB0608101BD64608F2FD3873EBA4
:10055000050002D308F1010801E092185B41B8F1EF
:10056000000F03DA00200146BDE8F08D00204FF4B3
:100570008011064684460EE0171B73EB050705D372
:10058000121B63EB050306434CEA010C49084FEAD2
:10059000300092185B4150EA0107EDD152EA0300A6
:1005A00012D082EA040083EA0501084305D0101B3B
:1005B000AB4106D20122002306E000224FF00043A7
:1005C00002E06FF0010253101AEB06004CEB0851E9
:1005D00010EB0A0041EB0B01BDE8F04D00F039B91A
:1005E000C10F80EAE0700844CA079623002100F09A
:1005F00002B996230022114600F0FDB800F0004237
:1006000020F00040C10DC0F3160040F400007F2927
:1006100001DA00207047962903DCC1F19601C84039
:1006200001E096398840002AF4D04042704700F03B
:10063000004230F000400AD0C10D01F56071C0F3F6
:10064000160042EA0151C2084007114370470020DA
:100650000146704730B5041E71F1000404DB4FF011
:100660000044404264EB0101141E73F1000405DBF9
:100670001C464FF00043524263EB04038B4208BF19
:10068000824230BD30B5041E71F1000404DB4FF02E
:100690000044404264EB0101141E73F1000405DBC9
:1006A0001C464FF00043524263EB0403994208BFDB
:1006B000904230BD01F0004330B421F0004150EAD7
:1006C000010206D00A0DA2F56072C1F31301002ADF
:1006D00002DC30BC00207047440F44EAC104C10072
:1006E000E01830BC00EBC25000F07CB8002801DB01
:1006F000C0F10040002901DBC1F100418142704797
:10070000002801DBC0F10040002901DBC1F10041FC
:100710008842704730B50B46014600202022012454
:1007200009E021FA02F59D4205D303FA02F5491BBF
:1007300004FA02F52844151EA2F10102F1DC30BDD5
:100740002DE9F05F0546002092469B468846064606
:10075000814640241BE0284641464746224600F099
:1007600043F953465A46C01A914110D311461846D0
:10077000224600F016F82D1A67EB01084F46224674
:100780000120002100F00DF817EB00094E41201E5A
:10079000A4F10104DFDC484631462A464346BDE861
:1007A000F09F202A04DB203A00FA02F10020704773
:1007B0009140C2F1200320FA03F31943904070479F
:1007C000202A06DBCB17203A41FA02F043EAE07315
:1007D00006E041FA02F3D040C2F120029140084302
:1007E000194670470029A8BF7047401C490008BF40
:1007F00020F00100704710B4B0FA80FC00FA0CF051
:1008000050EA010404BF10BC704749B1CCF1200488
:1008100021FA04F411FA0CF118BF01212143084315
:10082000A3EB0C01CB1D4FEA00614FEA102042BF41
:10083000002010BC704700EBC35010440029A4BF37
:1008400010BC7047401C490008BF20F0010010BCDC
:10085000704710B5141E73F1000408DA401C41F112
:10086000000192185B411A4301D120F0010010BD34
:100870002DE9F04D92469B4611B1B1FA81F202E0AA
:10088000B0FA80F220329046FFF78BFF04460F4605
:1008900040EA0A0041EA0B0153465A46084313D086
:1008A000114653EA010019D0C8F14002504600F049
:1008B0009BF805460E46504659464246FFF771FFE3
:1008C000084305D0012004E020463946BDE8F08DFC
:1008D0000020054346EAE0762C4337430A98630537
:1008E000E40AA0EB08000022FD0A44EA47540A305B
:1008F00002D500200146E9E7010510196941DDE94B
:10090000084500196941BDE8F04DA2E72DE9FE4F09
:10091000C3F30A5701F000450024C1F30A56C3F39C
:100920001303C1F3130143F4801312EB020AA6462A
:1009300041F48011009543EB030CA7F1010B16E085
:10094000B0EB0A0061EB0C01071E71F1000707DA3A
:100950004FF00008D0EB080085F0004568EB01017E
:10096000171A73EB0107EBD3761E001849415E4559
:10097000F6DA50EA010209D0CDE900E5002213467B
:100980000296FFF775FF03B0BDE8F08F204600998F
:10099000F9E7C1F30A52C1F3130140F2FF3341F406
:1009A00080119A4202DA00200146704740F2334338
:1009B0009A42A2F2334202DC524200F015B8FFF72D
:1009C000F0BE0000064C074D06E0E06840F0010371
:1009D00094E8070098471034AC42F6D3FFF796FB33
:1009E000443E0008643E0008202A04DB203A21FA35
:1009F00002F00021704721FA02F3D040C2F1200238
:100A0000914008431946704770B504460D4600F002
:100A100065F904F0FE0000F00BF900F0E9F9284652
:100A200000F006F900F0E4F900F058F944F0010094
:100A300000F0FEF800F0DCF9002000F0C9F80646EE
:100A400000F088F9304670BD2DE9F0470646304683
:100A5000FFF7EDFD07460F4A0F4B01F0E9FD044695
:100A6000FFF728FE814600214846FFF749FE03D8DC
:100A70004846FFF7DCFD07E04846FFF7D8FD07468C
:100A8000044A054BFFF724FC0446FFF713FEBDE8BC
:100A9000F0870000F1D4C853FB21194000BFFEE7E6
:100AA00000BFFEE710B54FF4C06002F0B9F840F2A5
:100AB000036002F0B5F801210C4801F08DFE3823E7
:100AC000032210210A4801F029FE4FF400430322BB
:100AD0001021084801F022FE3821054801F004FEEB
:100AE0004FF40041034801F001FE10BD0002300048
:100AF000000C01400008014000BFFEE710B52021B6
:100B00000D4801F0F1FD0823032210210A4801F0ED
:100B100005FE2021084801F0E7FD022001F068FCF5
:100B20002021054801F0E2FD022001F061FC2021B6
:100B3000014801F0D9FD10BD000C014010B540F294
:100B4000026002F06DF84FF40063032210210F4899
:100B500001F0E4FD4FF48053032210210B4801F013
:100B6000DDFD4FF40061094801F0C0FD4FF48051F4
:100B7000064801F0BBFD4FF40061044801F0B6FDEA
:100B80004FF48051014801F0B1FD10BD0008014053
:100B900010B520210D4801F0A7FD082303221021E4
:100BA0000A4801F0BBFD0821084801F09FFD022022
:100BB00001F01EFC2021054801F098FD022001F003
:100BC00017FC2021014801F08FFD10BD000C0140F1
:100BD00070B505460024082303220421134801F0C0
:100BE0009DFD002618E02021104801F07DFD022027
:100BF00001F014FC20210D4801F078FD6006040E80
:100C000008210A4801F0E0FD08B1601CC4B20120CF
:100C100001F004FC701CC6B2082EE4DB15B9FFF726
:100C2000B7FF01E0FFF76AFF204670BD000C0140EE
:100C300070B50446082303221021164801F06EFD0A
:100C40002021144801F050FD00251FE0E00920B1EB
:100C50000821104801F04AFD03E008210D4801F089
:100C600043FD6006040E022001F0D8FB2021094854
:100C700001F03CFD022001F0D1FB2021054801F0EC
:100C800033FD022001F0CAFB681CC5B2082DDDDB74
:100C900070BD0000000C014010B54FF400610E481B
:100CA00001F024FD4FF480510B4801F01FFD01209D
:100CB00001F098FB4FF48051074801F015FD012029
:100CC00001F090FB4FF40061034801F00DFD01209D
:100CD00001F088FB10BD00000008014010B508239A
:100CE000032210210C4801F019FD20210A4801F0CF
:100CF000FDFC0821084801F0F9FC042001F08EFBFE
:100D00000821054801F0F0FC042001F087FB2021B8
:100D1000014801F0E9FC10BD000C014010B54FF492
:100D200080510B4801F0E0FC012001F05BFB4FF427
:100D30000061074801F0DAFC012001F053FB4FF499
:100D40008051034801F0D2FC012001F04BFB10BDA3
:100D50000008014010B50823032210210C4801F0BF
:100D6000DDFC08210A4801F0BFFC2021084801F001
:100D7000BBFC042001F052FB2021054801F0B6FC29
:100D80000821034801F0B2FC042001F047FB10BD2C
:100D9000000C014010B54FF40061144801F0A4FCB0
:100DA000012001F01FFB4FF48051104801F09EFC20
:100DB000012001F017FB4FF400610C4801F096FC94
:100DC000012001F00FFB4FF48051084801F0FCFCBA
:100DD00008B1012400E000244FF40061034801F051
:100DE00083FC012001F0FEFA204610BD00080140FE
:100DF00010B50024082303220421134801F08EFCBF
:100E00000821114801F072FC012001F007FB2021AC
:100E10000D4801F06BFC012001F000FB07E0601CB5
:100E2000C4B2FA2C03DDFFF795FF012010BD0821A5
:100E3000054801F0C9FC0028F1D12021024801F049
:100E400053FC0020F2E70000000C014010B5002424
:100E50004FF48051314801F0B7FC68B90A2001F025
:100E6000C7FA00BF4FF480512C4801F0ADFC0028B8
:100E7000F8D00120044610BD4FF40051274801F07E
:100E8000A3FC68B90A2001F0B3FA00BF4FF4005187
:100E9000224801F099FC0028F8D002200446EAE735
:100EA0004FF480411D4801F08FFC68B90A2001F021
:100EB0009FFA00BF4FF48041184801F085FC0028DC
:100EC000F8D003200446D6E74FF40041134801F060
:100ED0007BFC68B90A2001F08BFA00BF4FF4004197
:100EE0000E4801F071FC0028F8D004200446C2E747
:100EF0004FF480710A4801F067FC68B90A2001F0DC
:100F000077FA00BF4FF48071054801F05DFC0028BE
:100F1000F8D005200446AEE70020ACE7000C014005
:100F20000008014010B540F2026001F079FE40F285
:100F3000036001F075FE4FF470430322042105485D
:100F400001F0ECFB4FF4807303220421024801F00E
:100F5000E5FB10BD000C01400008014000BFFEE7AA
:100F600000BFFEE710B5002807DA0A07140E054A8D
:100F700000F00F031B1FD45403E00A07130E024AAC
:100F8000135410BD18ED00E000E400E070B500243B
:100F900019E004F1B001C8B2002100F0E4F9002129
:100FA000084600F0E0F90021102000F0DCF90025EF
:100FB00005E00121002000F0D6F9681CC5B2802DA3
:100FC000F7DB601CC4B2082CE3DB70BD10B504462F
:100FD0001CB90021A62000F0C6F9012C03D1002184
:100FE000A72000F0C0F910BD10B504463CB900219F
:100FF000C82000F0B8F90021A12000F0B4F9012CBC
:1010000007D10021C02000F0AEF90021A02000F09F
:10101000AAF910BD10B5FFF791FD4FF4FA7001F079
:10102000E1F90021AE2000F09EF900212E2000F011
:101030009AF90021084600F096F90021102000F0EE
:1010400092F90021402000F08EF90021B02000F03C
:101050008AF90021812000F086F90021FF2000F0AC
:1010600082F90021A12000F07EF90021A62000F0E5
:101070007AF90021A82000F076F900211F2000F065
:1010800072F90021C82000F06EF90021D32000F091
:101090006AF90021084600F066F90021D52000F029
:1010A00062F90021802000F05EF90021D92000F0D3
:1010B0005AF900211F2000F056F90021DA2000F033
:1010C00052F90021084600F04EF90021DB2000F023
:1010D0004AF90021302000F046F900218D2000F06F
:1010E00042F90021142000F03EF90021A42000F074
:1010F0003AF90021A62000F036F90021AF2000F0D7
:1011000032F9FFF743FF0021084600F001F810BD57
:1011100070B504460D4605F1B001C8B2002100F0DB
:1011200022F904F00F00002100F01DF9102141EA1E
:101130001410002100F017F970BD00002DE9F041F6
:1011400006460C4617464FF000080025A7F1200080
:1011500000F0FF087F2E02DD0026A01CC4B2601C38
:10116000C1B23046FFF7D4FF00250AE008EB480182
:10117000064A02EB4101485D012100F0F4F8681CC9
:10118000C5B2062DF2DBBDE8F08100006A3500082B
:101190002DE9FF4F87B0074691461E46DDE914A5AD
:1011A000002006904846FFF729FA0590002433E016
:1011B000301B401EC1B20A2001F0EAFC0599B1FBC8
:1011C000F0F00A21B0FBF1F201FB1208069898B981
:1011D000701EA04210DDB8F1000F0BD105EBD571E8
:1011E000491001FB0471C8B2202204950899FFF749
:1011F000A5FF0FE00120069005EBD571491001FB1A
:101200000471C8B208F13001CAB204950899FFF719
:1012100095FF00BF601CC4B2B442C9DB05EBD571B9
:10122000491001FB0671C8B22E2204950899FFF7F8
:1012300085FF51460A2001F0ABFC0190FFF7D9F978
:1012400003900598FFF7CCF949460190FEF7CDFFD2
:1012500002900399FEF7CCFF0490FFF7CFF9834685
:1012600000241EE0AAEB0400401EC1B20A2001F0D7
:101270008FFCBBFBF0F00A21B0FBF1F201FB12087E
:1012800005EBD5714910A31901FB0371491DC8B2C3
:1012900008F13001CAB204950899FFF74FFF601CAE
:1012A000C4B25445DEDB0BB0BDE8F08F2DE9FF5F23
:1012B000074691461D460E9E4FF0000A002433E07B
:1012C000281B401EC1B20A2001F062FCB9FBF0F0FD
:1012D0000A21B0FBF1F201FB1208BAF1000F13D1A1
:1012E000681EA04210DDB8F1000F0BD1B34606EB2B
:1012F000DB71491001FB0471C8B220220199FFF78C
:101300001DFF0FE04FF0010AB34606EBDB714910F9
:1013100001FB0471C8B208F13001CAB20199FFF7AC
:101320000DFF00BF601CC4B2AC42C9DBBDE8FF9F2B
:101330002DE9F04104460F46154600260EE0AA5D51
:1013400039462046FFF7FAFE04F10800C4B2782CB3
:1013500002DD0024B81CC7B2701CC6B2A85D00280C
:10136000EDD1BDE8F08170B505460C461CB12846AC
:1013700000F064F902E0284600F050F970BD7047B3
:1013800000BFFEE710B501F03DF810BD08B52E48CE
:10139000006840F001002C49086000BF2A4800683E
:1013A00000F002000028F9D000BF2748406840F054
:1013B0008000254948600020009002E00098401C11
:1013C000009000985028F9D31F48406840F09000E2
:1013D0001D4948600020009002E00098401C0090E9
:1013E00000985028F9D300BF1748406820F0030048
:1013F00015494860084600681449084012490860C9
:1014000008464068124908400F494860084600688D
:101410000E4908400C4908600846006820F4802006
:101420000860084640680B4908400749486008467C
:10143000006806490840044908604FF41F008860AE
:1014400001F0B6FD08BD000000100240FFFFF6FEEF
:101450000C00FFE8FFFF00F72DE9F04101212948CA
:1014600002F059F801284BD100F0E6FE2649086049
:101470000846006800F020FF2449086024492348FA
:10148000006800F06DFF23490860204800210268D1
:101490002048006801F012FC1F480068FFF7C7F8F9
:1014A00006461E4A1E4BFEF713FF0446FFF702F9DD
:1014B0001949086008460068FFF7B9F80446194A58
:1014C000194BFFF7C7F805D24FF40041174801F058
:1014D0000DF904E04FF40041144801F005F90E48FD
:1014E0000068FFF7A4F80446114A124BFFF7CAF848
:1014F00002D20020084908600121024802F008F8E1
:10150000BDE8F08100040040A8000020AC000020ED
:101510000000F041B80000208C0000207B14AE4792
:10152000E17A743F9A999999999909400008014084
:10153000CDCCCCCCCCCC18401FB50446684601F0CD
:10154000F6FF40F2017001F06BFB164801F0F8FE67
:1015500040F2CF20ADF800000020ADF80200ADF859
:101560000400601E02900020ADF80C0069460D4892
:1015700001F05AFF0B4801F0A7FD0121094801F0D5
:10158000C7FF0121074801F0BFFF4FF4C06001F021
:10159000F5FA032200211D2001F09AFA014801F01A
:1015A0003DFF1FBD0004004000BFFEE770B50446CC
:1015B000002524E04FF40061174801F095F8012060
:1015C00000F010FF04F0800028B14FF48051124861
:1015D00001F08CF804E04FF480510F4801F084F8DA
:1015E0006006040E012000F0FDFE4FF400610A4881
:1015F00001F07CF8012000F0F5FE681CC5B2082D52
:10160000D8DB4FF40061044801F06EF8012000F0CF
:10161000E9FEFFF7BFFB70BD0008014010B50446AE
:10162000FFF73AFB7820FFF7C1FF0020FFF7BEFF6E
:101630002046FFF7BBFFFFF771FB10BD10B5044656
:10164000FFF72AFB7820FFF7B1FF4020FFF7AEFF3E
:101650002046FFF7ABFFFFF761FB10BD0FB4054B52
:1016600010B503A9044A029800F0F8F810BC5DF820
:1016700014FB0000C5260008D000002000221346FD
:1016800010461146FEF73DBF02E008C8121F08C110
:10169000002AFAD170477047002001E001C1121FF3
:1016A000002AFBD170470000014908607047000024
:1016B000D400002070B5044605492046FEF798FD89
:1016C0000546044801682846FEF78CFD70BD000001
:1016D0000000E0403C0000202DE9FF5F82B00021C7
:1016E000DDE90430020DDDF840B0034318D044F6C4
:1016F0001050A2F2FF3242431514119801281FD056
:10170000A5EB0B00401C5FEA000A4FF000064E4FAD
:10171000DFF83891B046504615D5CAF1000413E001
:10172000119801244AA3012801D16FEA0B01029804
:10173000119AC0E90031C0E9024206B0BDE8F09F4D
:10174000CBF10000DFE704460021404A491842EB94
:101750000450CDE9001012E0E00707D032463B46C6
:1017600040464946FEF75BFE8046894632463B4688
:1017700010461946FEF753FE06460F466410002C2D
:10178000EAD1DDE90401DDE90023BAF1000F06DA50
:10179000FEF745FE42464B46FEF741FE05E0FEF7EA
:1017A000B0FE42464B46FEF7ACFE04460E46002213
:1017B000284BFEF767FF03D84FF0FF30014607E0E4
:1017C0000022254B20463146FEF782FDFFF7E1F867
:1017D000102409E0002C0ADB0A220023FEF7B0FFE8
:1017E000039B30321A55641E50EA0102F2D1641C88
:1017F000039AC4F111031444119A012A03D001225F
:1018000008430DD10AE0084304D000204FF0110B2B
:10181000119072E7A3EB0B056D1E0DE05B4504DD37
:101820004FF0000205F1010504E003DA4FF0000279
:10183000A5F10105002AECD002981199C0E9023106
:10184000C0E9004579E70000000014400000F03FC7
:10185000300000000000F0430000E03F2DE9FF4FA2
:1018600095B09A46884606460025EEE1252877D1B0
:1018700000242746F94A0121039400E0044316F8A6
:10188000013F203B01FA03F01042F7D130782A28BB
:1018900011D06FF02F033078A0F13002092A16D84A
:1018A000039A44F0020402EB820203EB420210446A
:1018B000761C0390EFE758F8042B0392002A03DA12
:1018C000504244F40054039044F00204761C3078F3
:1018D0002E2816D116F8010F44F004042A280DD042
:1018E0006FF02F023078A0F13003092B09D807EBF5
:1018F000870302EB4303C718761CF3E758F8047B11
:10190000761C30786C280FD006DC4C2817D068285D
:101910000DD06A2814D104E0742810D07A280FD191
:101920000DE044F400140AE044F4801401E044F4AF
:1019300040147278824202D104F58014761C761C21
:10194000307866280BD013DC582877D009DC0028C3
:1019500075D04528F6D04628F4D047281AD193E10F
:1019600018E0632835D0642879D0652812D18BE13E
:10197000702873D008DC6728F1D069286FD06E28F2
:101980000DD06F2806D1ACE073282CD0752874D008
:10199000782853D05246179990476D1C54E1C4F3F0
:1019A0000250022809D003280DD0D8F800100428CE
:1019B0000DD00D6008F1040846E1D8F80010EA17D0
:1019C000C1E90052F6E7D8F800100D80F2E70D707B
:1019D000F0E718F8041B8DF8001000208DF80100C6
:1019E000EB46012003E058F804BB4FF0FF306107DD
:1019F0004FF0000102D40DE009F101018946B9421E
:101A00000FDA8145F8DB1BF809100029F4D108E052
:101A100009F1010189468142FADB1BF8091000290E
:101A2000F6D103985346A0EB090721463846179A8A
:101A300000F080FA284400EB090507E044E008E1E3
:101A40000DE01BF8010B524617999047B9F10109B7
:101A5000F7D2534621463846179AF2E039E00A2178
:101A6000C4F302524FF0000B0091022A06D058F83E
:101A7000040BC117032A09D00AE023E008F107008C
:101A800020F00702F2E80201904605E000B2C1171B
:101A9000042A01D140B2C117002906DA0A46002102
:101AA000404261EB02012D2202E0220504D52B22E7
:101AB0008DF80420012203E0E20701D02022F7E79D
:101AC000914657E00A2100E010214FF0000B0091F1
:101AD0000BE010214FF0000B44F0040408270091A4
:101AE00003E008204FF0000B0090C4F30252022ADA
:101AF00005D058F8040B0021032A08D008E008F1AB
:101B0000070020F00702F2E80201904603E080B2ED
:101B1000042A00D1C0B24FF0000922072AD532783A
:101B2000702A07D0DDF800C08CF0100C5CEA0B0CBA
:101B300005D00EE040228DF80420012208E050EA92
:101B4000010306D030238DF804308DF805200222E1
:101B50009146009B83F0080353EA0B030AD150EA35
:101B6000010201D1620705D530228DF804204FF023
:101B700001097F1E3278582A04D039A20C920CAA8F
:101B800002920BE03BA2F9E75B46009AFEF7D8FD14
:101B90000C9B9B5C029A521E0292137050EA010247
:101BA000F2D1029804A9081A00F1200B600702D5AF
:101BB00024F4803400E001275F4502DDA7EB0B0031
:101BC00000E0002000EB0B01009003984944401A0C
:101BD0000390E00306D453462146179A039800F079
:101BE000A9F90544002706E001A85246C05D1799EF
:101BF00090476D1C7F1C4F45F6DBE0030CD5534628
:101C00002146179A039800F095F9054404E0302026
:101C10005246179990476D1C0099481E0090002964
:101C2000F5DC08E00298029952460078491C0291BE
:101C3000179990476D1CBBF10001ABF1010BF1DC72
:101C40005BE100F065F90544761C307800287FF4EC
:101C50000DAE19B02846BDE8F08F0000092801003C
:101C60003031323334353637383961626364656612
:101C700000000000303132333435363738394142D4
:101C80004344454600000000600700D4062708F1E1
:101C9000070020F00700F0E80223804603F0004C24
:101CA0005FEA0C0001D097A009E0200501D596A0BD
:101CB00005E0E00701D095A001E0AFF24C001390E1
:101CC000307823F0004365280CD006DC452809D085
:101CD00046281DD047287FD13BE0662818D06728CA
:101CE0007AD136E00021112F01DB112000E0781CB1
:101CF000CDE9000104A90CA8FFF7EEFCDDE90D0118
:101D00000C9A4FF0000B07F10109109200914EE080
:101D10004FF000400097CDE9011004A90CA8FFF78F
:101D2000DBFCDDE90D020C9B0F994FF0000B914697
:101D30001093009211B9791C00EB0109B7EB09006F
:101D400003D4C0F1FF3B07F10109A9EB07000190A3
:101D500042E0012F00DA01270021112F01DD1120BF
:101D600000E03846CDE9000104A90CA8FFF7B4FC57
:101D7000DDE90D010C9A00914FF0000BB94610926D
:101D800021070FD4009A4A4503DA914601E0A9F1F0
:101D90000109B9F1010F05DD109AA9F10101515CAA
:101DA0003029F4D0B84202DA10F1040F03DA01212D
:101DB000CDE9011010E0002803DC8344A9EB000109
:101DC00002E0411C494500DD8946A0EB0B00401CA8
:101DD00001904FF000400290200705D4019848453B
:101DE00002DB4FF0FF30019000208DF84B0002988D
:101DF0000DF14B07B0F1004F25D002200C902B20A5
:101E00000D90029800280CDA404202902D200D908F
:101E100007E00A210298FEF77DFC3031029007F8B6
:101E2000011D0C99481E0C900029F2DC0298002834
:101E3000EFD1791E0D980870307800F0200040F046
:101E4000450007F8020D11A8C01BC01D0290139891
:101E5000007800B1012000EB0901019801EBE0716D
:101E6000029801440398401A401E0390E00306D4F0
:101E700053462146179A039800F05CF805441398DE
:101E8000007818B15246179990476D1CE00323D58E
:101E900053462146179A039800F04CF805441BE07E
:101EA000BBF1000F07DB0098584504DD1098179927
:101EB00010F80B0001E01799302052469047019826
:101EC0000BF1010B401E05F10105019004D12E20FC
:101ED0005246179990476D1CB9F10001A9F101090B
:101EE000DEDC05E017F8010B5246179990476D1C90
:101EF0000299481E02900029F4DC53462146179AA5
:101F000003989EE62D0000002B000000200000003A
:101F10002DE9F041044600251E461746880404D4E6
:101F200005E039462020B0476D1C641EF9D52846CF
:101F3000BDE8F0812DE9F041044600251E4690469B
:101F4000C80301D5302700E02027880404D505E028
:101F500041463846B0476D1C641EF9D52846BDE899
:101F6000F081816841F00801816000BF816801F063
:101F700008010029FAD1816841F00401816000BFA5
:101F8000816801F004010029FAD1704730B50129B8
:101F900002D002291AD10CE0C36A23F47003C36291
:101FA000C36A541E4FF4700505EA04542343C36208
:101FB0000DE0836B23F440138363836B541E4FF453
:101FC000401505EA04542343836300E000BF00BFCB
:101FD00030BD000010B500F08BFB40F2096000F04E
:101FE0001FFE032000F0F8FD002000F081F8012220
:101FF0001102134800F0F3F800220221104800F00B
:10200000EEF800210E4800F01DF8012211460C48A0
:10201000FFF7BCFF4FF460220121094800F045F8AA
:1020200001221146064800F021F8054800F015F895
:10203000022000F0DDF90248FFF793FF10BD000019
:102040000024014021B1826842F40062826003E012
:10205000826822F4006282607047816801F00101A9
:1020600019B9816841F001018160704772B101F0D6
:1020700001031BB1836843F48013836001F0020302
:1020800093B1836843F4004383600DE001F00103E2
:102090001BB1836823F48013836001F002031BB13A
:1020A000836823F4004383607047012902D002292A
:1020B00010D107E0836823F46023836083681343AF
:1020C000836008E0836823F4E043836083681343FC
:1020D000836000E000BF00BF704702688A4302606F
:1020E00070470246002013680B4003B1012070477F
:1020F0000549096821F47021034A116011460968F5
:10210000014311607047000004240140F0B51D46F2
:1021100006290CDA436B01EB81071F26BE40B3434F
:1021200001EB810602FA06F63343436322E00C29F1
:102130000EDA036B8E1F06EB86071F26BE40B343E5
:102140008E1F06EB860602FA06F63343036311E0A0
:1021500010290FDAC36AA1F10C0606EB86071F26C9
:10216000BE40B343A1F10C0606EB860602FA06F662
:102170003343C3620A2A0CDA046902EB42070726DA
:10218000BE40B44302EB420605FA06F6344304614E
:1021900011E0122A0FDAC468A2F10A0606EB46071C
:1021A0000726BE40B443A2F10A0606EB460605FA2E
:1021B00006F63443C460F0BD0146C86C80B2704777
:1021C00001F001021AB1826842F48002826001F0DB
:1021D00002021AB1826842F4001282607047AAB10A
:1021E00001F480731BB1436843F48073436001F4CE
:1021F00080631BB1436843F48063436001F00203D2
:10220000CBB1836843F00203836014E001F4807370
:102210001BB1436823F48073436001F480631BB1F6
:10222000436823F48063436001F002031BB18368B9
:1022300023F002038360704770B50E216C20FEF717
:10224000E3FB1949086008460068000208600F2196
:102250006C20FEF7D9FB144909680843124908604D
:1022600008460068FEF7BCF905464FF08B41FDF7C4
:10227000F1FF04460D4801682046FDF7B9FF0C49FF
:1022800008600A4801680A480068FEF739FA03D86E
:102290000648006806490860064801680448006866
:1022A000FDF7A0FF70BD00000C000020140000200E
:1022B000100000201800002070B504461648016880
:1022C0002046FDF78FFF06461448006880F0004561
:1022D00031462846FEF714FA06D211480168304606
:1022E000FDF72EFF06460BE00C4801683046FEF76E
:1022F00007FA05D20A4801683046FDF773FF064623
:10230000314608480068FDF71BFF0649086002488F
:1023100004600846006870BD2000002018000020FE
:10232000140000201C00002010B50446094A0021BA
:10233000094800F0C3FC4FF47A7000F059F82046C9
:10234000FFF7B8F905490860024A0021084600F085
:10235000B5FC10BDE4CB9640000040403C0000209E
:102360002DE9F04104460D4629462046FDF73AFF87
:10237000154908601548016813480068FDF732FFE9
:102380008046134801684046FDF732FF06460E4876
:10239000016810480068FDF72BFF07463146FDF73E
:1023A000CFFE0D4908600D4A0D490B48006800F04A
:1023B0005BFA094908600448006804490860064857
:1023C0000068BDE8F081000090000020940000202B
:1023D000A00000209C000020980000200000C040C9
:1023E0000000C0C000BF011EA0F10100FBD170477A
:1023F0000349086000BF024909680029FBD1704702
:10240000CC0000200448006820B103480068401E4A
:102410000149086070470000CC00002000BF011E89
:10242000A0F10100FBD1704770B50446164D294656
:102430002046FDF7DDFE06461449FDF781FE054600
:1024400029462046FDF7D4FE06461149FDF778FEE1
:10245000054629462046FDF7CBFE06460D49FDF709
:102460006FFE054629462046FDF7C2FE06460A498C
:10247000FDF766FE054629462046FDF7B9FE0646ED
:102480000649FDF75DFE70BD7ABF142FCA32D4B283
:1024900035C538369E0A50B97888083CAAAA2ABEA3
:1024A00070B50446164D29462046FDF7A1FE0646A6
:1024B0001449FDF745FE054629462046FDF798FEDE
:1024C00006461149FDF73CFE054629462046FDF724
:1024D0008FFE06460D49FDF733FE05462946204688
:1024E000FDF786FE06460A49FDF72AFE05462946FF
:1024F0002046FDF77DFE06460649FDF721FE70BD2C
:10250000F2A3ED30017591B4B3CCCF371408B6BA4D
:1025100083AA2A3DFDFFFFBE2DE9F04704461E4970
:102520002046FDF765FE0646FEF768F80546284694
:10253000FEF756F807461949FDF75AFE06462146AA
:10254000FDF753FE044605F0010070B1002120465E
:10255000FEF7D6F804D211492046FDF743FE03E00A
:102560000E492046FDF7ECFD044621462046FDF7C6
:102570003FFE8146FFF794FF074621462046FDF7C0
:1025800037FE80463946FDF733FE06464FF07E5152
:10259000FDF7D6FDBDE8F08783F9A23EDA0F49408A
:1025A0002DE9F047044620492046FDF721FE064666
:1025B000FEF724F805462846FEF712F807461B49A1
:1025C000FDF716FE06462146FDF70FFE044605F010
:1025D000010070B100212046FEF792F804D21349A1
:1025E0002046FDF7FFFD03E010492046FDF7A8FD5A
:1025F000044621462046FDF7FBFD8146FFF714FF08
:10260000074621462046FDF7F3FD81462146FDF7AA
:10261000EFFD80463946FDF7EBFD06462146FDF706
:102620008FFDBDE8F087000083F9A23EDA0F494034
:1026300070B514461D460E46002814BF0121002126
:10264000314321F00041C1F17F6101F1E041C90F47
:1026500016D1002C14BF01210021294321F0004193
:10266000C1F17F6101F1E041C90F09D11449B1EB1A
:10267000460F08BF00281CD0690008BF002C18D0E6
:102680003146FEF743F9024640F2FF7030EA11503E
:102690000DD0F017B0EBE17F09D0084665F31E00BE
:1026A00084460B4620466146FDF7B6FE02461046BC
:1026B00070BD0120FEF7F8FFBDE87040FEF7DEBFF9
:1026C0000000E0FF70B504460D46E1B2054800F099
:1026D00039FF00BF0721034800F038FF0028F9D078
:1026E000204670BD0038014041617047016170476C
:1026F00010B540F2036000F093FA8023032200211A
:10270000044800F00BF803231A460021024800F0A9
:1027100005F810BD00080140000C0140F0B504466A
:1027200016460025002201F00F0501F0100707B141
:10273000354300201EE0012787401F40C7B12268B3
:102740004FEA800C0F2707FA0CF7BA43870005FA07
:1027500007F73A43282904D1012787401F406761C2
:1027600005E0482903D1012787401F4027612260E7
:10277000471CB8B20828DED3082022E00127874092
:102780001F40E7B16268A0F108074FEA870C0F27E6
:1027900007FA0CF7BA43A0F10807BF0005FA07F7DC
:1027A0003A43282904D1012787401F40676105E08B
:1027B000482903D1012787401F4027616260471CD9
:1027C000B8B21028DAD3F0BD02469068084008B1CC
:1027D000012070470020FCE7F0B50A4600230024E2
:1027E0000021002500F00046B6F1004F02D11D4E39
:1027F000F16901E01B4E7168C0F3034583B200F438
:102800004016B6F5401F08D121F07061154E76686C
:1028100026F07066134F7E6012E000F48016B6F565
:10282000801F06D1032606FA05F4A14341F070612A
:1028300006E0460D360103FA06F6B14341F0706139
:1028400022B1460D360103FA06F6314300F0004688
:10285000B6F1004F02D1034EF16101E0014E71600B
:10286000F0BD00000000014070B505460E4614465C
:1028700021462846FDF744FF01D8254607E03146AA
:102880002846FDF733FF01D8354600E000BF284653
:1028900070BD00001FB500BF00BF00BF00F08CFB83
:1028A0006420FFF7A5FDFEF7B5FB0020FEF78EFBC9
:1028B0000020FEF799FBFEF735FBFEF7F3F8002248
:1028C00040F2CF71022000F09FFBFFF7B5FC6C498E
:1028D000086008460068FFF727FDFFF77BFBCDE0A7
:1028E000072000F0CDF967490880082000F0C8F9FA
:1028F00064494880092000F0C3F96249888009884A
:10290000614A1288881AFDF76BFE604908605D49CC
:1029100049885F4A1288881AFDF762FE5D4908609F
:102920005A4801680020FDF75DFC044659480168DB
:102930002046FDF757FC58490860FEF787FA5749CB
:10294000086057480068FDF772FE04460D4655487A
:102950000068FDF76CFE06460F4653480068FDF719
:1029600066FE804642460B4650A0CDE90067CDE9A1
:102970000245FEF773FE002141480068FDF7C0FEE6
:1029800010D250A200210846FEF7D2FC0C200321F1
:102990000123CDE900103A48002102680A20FEF721
:1029A000F7FB18E048A200210846FEF7C1FC3448B6
:1029B0000068FDF73CFE21F000410546FDF77AFE78
:1029C00004460C20032101232246CDE900100021FA
:1029D0000A20FEF7DDFB00213C480068FDF790FE71
:1029E00010D238A201210020FEF7A2FC0C20032106
:1029F0000223CDE900103548012102680A20FEF7C4
:102A0000C7FB18E030A201210020FEF791FC2F48FF
:102A10000068FDF70CFE21F000410546FDF74AFE77
:102A200004460C20032102232246CDE90010012197
:102A30000A20FEF7ADFB0C20009012480288042308
:102A400000216120FEF732FC0C2000900D484288E6
:102A5000042301216120FEF729FC0C200090094885
:102A60008288042302216120FEF720FC0B480068C5
:102A7000012802D10A20FEF75FFD00BF30E7000009
:102A8000A800002004000020C8000020BC00002096
:102A9000CA000020C0000020C4000020A4000020C4
:102AA0005C000020580000205400002055613A25A9
:102AB0006C662C55623A256C662C55633B256C661A
:102AC0000A0000002B0000002D000000AC000020D8
:102AD0002DE9F04103460D46164600240027A04686
:102AE0002448006800F4E060B0F5A06F15D006DC63
:102AF000B0F5407F18D0B0F5806F19D110E0B0F577
:102B0000C06F06D0B0F5E06F12D100274FF0040877
:102B100015E001274FF0030811E00227B8460EE048
:102B200003274FF001080AE004274FF0000806E0F1
:102B30004FF4A06000F022F80227B84600BF00BFA3
:102B4000C7F1040005FA00F4C8F104010F20C840E1
:102B50003040044324010848C45403F01F010120FD
:102B600088405911890001F1E021C1F80001BDE858
:102B7000F08100000CED00E000E400E002490143B8
:102B8000024A1160704700000000FA050CED00E0F9
:102B900010B50246012000E050430B1EA1F10104D4
:102BA000E1B2F9D110BD10B50446224601218807D3
:102BB00000F0B3FB10BD10B50446224602214807C1
:102BC00000F0ABFB10BD10B50446224603214FF0C8
:102BD000804000F0A2FB10BD0F4A51680F4A11401F
:102BE000082814D2DFE800F004050607130A130BC7
:102BF00000BF00BF00BF41EA803109E000BF20F004
:102C000004004FF0805242EA8032114300E000BFDE
:102C100000BF014A5160704700100240FF3FFFEFC4
:102C2000064A02EB9011096800F01F0301229A4046
:102C30001143024B03EB90121160704700100240E9
:102C4000064A02EB9011096800F01F0301229A4026
:102C50009143024B03EB9012116070470010024049
:102C6000064A02EB9011096800F01F0301229A4006
:102C70001143024B03EB90121160704700100240A9
:102C800010B504460023224619460B48FFF73EFACA
:102C900001210948FFF794FA00BF02210648FFF717
:102CA00020FA0028F9D002210348FFF716FA02485B
:102CB000FFF782FA10BD0000002401402DE9F74F14
:102CC00086B0044691464D4A4D492046FFF7CCFD5B
:102CD00004464846FDF7B8FE81464846FEF7EAFC42
:102CE00081464846FFF718FC07460799FDF780FA2A
:102CF00005464846FFF754FC804684F000474146AD
:102D00003846FDF775FA06462946FDF719FA3D499A
:102D100008604846FFF744FC07460799FDF768FA44
:102D200005464846FFF7F8FB07462146FDF760FADF
:102D300006462946FDF704FA334908602F49314811
:102D40000068FDF7FDF9314908602E480068FDF77D
:102D50006EFC05460E462C480068FDF768FC2C4AC0
:102D60002C4BCDE90001FDF75AFB07462A463346B6
:102D7000FDF74FFB00224FF08043CDE90201FDF744
:102D8000C0FB0022244BCDE90401FDF7A1FA8246E5
:102D9000FDF790FC214908601A480068FDF747FCE0
:102DA000CDE9020118480068FDF741FC184A1C4BA8
:102DB000CDE90001FDF733FB0746DDE90223FDF70E
:102DC00028FB054600224FF08043FDF79AFB824620
:102DD0000022114BFDF77CFACDE90401FDF76AFCF6
:102DE00010490860084602680C48016807480068F6
:102DF00000F01AF809B0BDE8F08F00000000A04014
:102E00000000A0C04C000020500000205400002012
:102E100083C0CAA145B6FB3F000014405800002003
:102E200045B6FBBF5C0000202DE9F04106460C468C
:102E300015462E4A00213046FFF716FD06462B4A5E
:102E400000212046FFF710FD0446284A00212846AD
:102E5000FFF70AFD054626493046FDF7FBF9074610
:102E60004FF07E520021FFF7FFFC22490860204905
:102E70002046FDF7EFF907464FF07E520021FFF79D
:102E8000F3FC1D4908601A492846FDF7E3F9074697
:102E90004FF07E520021FFF7E7FC184908601849FF
:102EA00014480068FDF7A4F98046FDF7A7FB87B238
:102EB0003846FFF778FE12490F480068FDF798F989
:102EC0008046FDF79BFB87B23846FFF774FE0C493E
:102ED0000A480068FDF78CF98046FDF78FFB87B242
:102EE0003846FFF770FEBDE8F08100000000C040EA
:102EF0000000204140000020440000204800002045
:102F00000000AF4400200021264A126842F001026E
:102F1000244B1A6000BF401C224A126802F00201D2
:102F200011B9B0F5A06FF6D11E4A126802F0020284
:102F30000AB900BFFEE71B4A52681A4B5A601A468C
:102F400052685A601A46526842F480625A601A46C1
:102F50005268154B1A40134B5A601A465268134B6D
:102F60001A43104B5A601A46126842F080721A6077
:102F700000BF0C4A126802F00072002AF9D0094A18
:102F8000526822F00302074B5A601A46526842F018
:102F900002025A6000BF034A526802F00C02082A7B
:102FA000F9D1704700100240FFFFC3F7000004088A
:102FB00010B5FFF7A7FF10BD10B5124800684FF419
:102FC0007A71B0FBF1F4601EB0F1807F01D3012073
:102FD0000FE0601E4FF0E02148610F214FF0FF30FD
:102FE000FDF7C0FF00204FF0E02188610720086155
:102FF000002008B100BFFEE70021481EFDF7B2FF28
:1030000010BD00000000002070B588B004460D46D9
:1030100016464FF4E060FFF703FE40F20260FFF750
:10302000FFFD4FF4C060FFF7FBFD022303221821D0
:103030002448FFF773FB0423032218212148FFF7DC
:103040006DFB0823032218211E48FFF767FB4FF092
:10305000804000F075F9ADF8104006950020ADF8FD
:103060001200ADF8140004A94FF0804000F0DCF924
:103070000120ADF8040001AA0121800700F02AF820
:1030800001AA0221480700F025F801AA03214FF008
:10309000804000F01FF860220121880700F010F93D
:1030A00060220221480700F00BF9602203214FF053
:1030B000804000F005F94FF0804000F0AFF908B013
:1030C00070BD000000080140016841F0800101600E
:1030D0007047000010B531B101293FD002297DD0E1
:1030E00003297CD1BFE0036A23F0010303628369F3
:1030F00023F003038361036A148823430362036A92
:1031000023F002030362036A9488234303626A4B39
:10311000984202D0694B98421FD1036A23F00403FE
:103120000362036A548823430362036A23F008039B
:103130000362036AD48823430362436823F48073E1
:1031400043604368148923434360436823F4007356
:1031500043604368548923434360ABE0036A23F030
:1031600010030362836923F440738361036A148844
:1031700043EA04130362036A23F020030362036A31
:10318000948843EA041303624B4B984202D04B4BA2
:10319000984226D1036A23F040030362036A5488ED
:1031A00043EA04130362036A23F080030362036AA1
:1031B000D48843EA04130362436823F480634360C2
:1031C0004368148943EA84034360436823F400633B
:1031D00043604368548943EA840301E002E068E005
:1031E000436067E0036A23F480730362C36923F0DA
:1031F0000303C361036A148843EA04230362036A76
:1032000023F400730362036A948843EA042303628D
:10321000294B984202D0294B984223D1036A23F4C8
:1032200080630362036A548843EA04230362036AE7
:1032300023F400630362036AD48843EA042303622D
:10324000436823F4805343604368148943EA0413BA
:103250004360436823F4005343604368548943EA5E
:103260000413436026E0036A23F480530362C369B6
:1032700023F44073C361036A148843EA043303628E
:10328000036A23F400530362036A948843EA043315
:103290000362094B984202D0084B984208D1436818
:1032A00023F4804343604368148943EA84134360F2
:1032B00000E000BF00BF10BD002C01400034014001
:1032C00031B101290CD0022913D0032922D118E0F1
:1032D000836923F0700383618369134383611AE078
:1032E000836923F4E0438361836943EA02238361B2
:1032F00011E0C36923F07003C361C3691343C36161
:1033000009E0C36923F4E043C361C36943EA0223CC
:10331000C36100E000BF00BF704731B1012906D092
:10332000022906D0032908D105E0426306E0826342
:1033300004E0C26302E0026400E000BF00BF704727
:1033400010B504463349601A8C4244D00CDCB4F109
:10335000804F1CD03048204410B3B0F5806F28D087
:10336000B0F5006F52D12DE0B0F5806F3CD0B0F5D4
:103370008E3F03D0B0F5923F48D13EE040F20B3093
:10338000FFF76EFC40F20B30FFF75AFC3FE04FF4C2
:103390008060FFF765FC4FF48060FFF751FC36E07A
:1033A00040F20140FFF75CFC40F20140FFF748FCAF
:1033B0002DE040F20240FFF753FC40F20240FFF7DD
:1033C0003FFC24E040F20340FFF74AFC40F2034098
:1033D000FFF736FC1BE040F20440FFF741FC40F2EF
:1033E0000440FFF72DFC12E040F20540FFF738FCE7
:1033F00040F20540FFF724FC09E040F20D30FFF7F2
:103400002FFC40F20D30FFF71BFC00E000BF00BFB7
:1034100010BD00000010004000FCFFBF016841F03B
:1034200001010160704700000A888262294A9042C7
:1034300020D0B0F1804F1DD0274A90421AD0274AA1
:10344000904217D0264A904214D0264A904211D07A
:10345000254A90420ED0254A90420BD0244A9042F1
:1034600008D0244A904205D0234A904202D0234AF1
:1034700090420FD1026822F07002026002688B78DD
:1034800003F060031A43026002680B7903F0100333
:103490001A4302608A68C262194A90420CD0194AE3
:1034A000904209D0026822F44072026002688B895F
:1034B00003F440731A430260064A904202D0094A5C
:1034C000904201D18A7B0263426942F0010242616B
:1034D00070470000002C014000040040000800403C
:1034E000000C004000340140004C014000500140FD
:1034F0000054014000180040001C00400020004023
:103500000010004000140040C2680A43C2607047C7
:10351000CA43026170470246D06800EA010310699D
:10352000084010B10BB1012070470020FCE70021DA
:103530000180418081804FF6FF718160002181818F
:1035400081737047C1F308024260704710B50246AC
:1035500002EB9110006801F01F040123A340184002
:1035600008B1012010BD0020FCE7000000000000B1
:103570000000002F000000000700070000147F1467
:103580007F1400242A7F2A12006264081323003665
:103590004955225000000503000000001C22410094
:1035A000000041221C000014083E08140008083ED8
:1035B0000808000000A060000008080808080000D3
:1035C00060600000002010080402003E5149453EA2
:1035D0000000427F400000426151494600214145C0
:1035E0004B31001814127F10002745454539003C27
:1035F0004A494930000171090503003649494936F5
:1036000000064949291E00003636000000005636E3
:1036100000000008142241000014141414140000C7
:103620004122140800020151090600324959513E55
:10363000007C1211127C007F49494936003E41410D
:103640004122007F4141221C007F49494941007FBE
:1036500009090901003E4149497A007F0808087FAD
:103660000000417F4100002040413F01007F0814DD
:103670002241007F40404040007F020C027F007FDB
:103680000408107F003E4141413E007F09090906C0
:10369000003E4151215E007F0919294600464949F3
:1036A00049310001017F0101003F4040403F001FC0
:1036B0002040201F003F4038403F0063140814633F
:1036C00000070870080700615149454300007F4129
:1036D000410000552A552A55000041417F00000451
:1036E000020102040040404040400000010204008A
:1036F000002054545478007F4844443800384444EF
:10370000442000384444487F00385454541800087A
:103710007E0901020018A4A4A47C007F0804047898
:103720000000447D4000004080847D00007F102820
:1037300044000000417F4000007C04180478007CB5
:103740000804047800384444443800FC2424241835
:103750000018242418FC007C080404080048545471
:10376000542000043F444020003C4040207C001C8A
:103770002040201C003C4030403C0044281028449D
:10378000001CA0A0A07C004464544C4414141414E5
:103790001414000000000000000000000000000001
:1037A0000000000000F800000000000000333000BE
:1037B000000000100C06100C0600000000000000C5
:1037C000000040C07840C0784000043F04043F043B
:1037D0000400007088FC08300000001820FF211E43
:1037E0000000F008F000E018000000211C031E217A
:1037F0001E0000F00888700000001E2123241927F5
:10380000211010160E000000000000000000000053
:103810000000000000E0180402000000000718206B
:10382000400000020418E0000000004020180700DB
:103830000000404080F0804040000202010F010281
:103840000200000000F0000000000101011F010162
:103850000100000000000000000080B070000000C7
:103860000000000000000000000000010101010153
:1038700001010000000000000000003030000000E6
:1038800000000000000080601804006018060100BD
:10389000000000E010080810E000000F10202010C9
:1038A0000F00001010F8000000000020203F202032
:1038B00000000070080808887000003028242221C9
:1038C000300000300888884830000018202020117F
:1038D0000E000000C02010F8000000070424243F60
:1038E000240000F808888808080000192120201109
:1038F0000E0000E0108888180000000F1120201131
:103900000E0000380808C83808000000003F00001A
:1039100000000070880808887000001C2221212205
:103920001C0000E010080810E00000003122221105
:103930000F00000000C0C000000000000030300098
:103940000000000000800000000000008060000017
:103950000000000080402010080000010204081050
:10396000200040404040404040000404040404045F
:10397000040000081020408000000020100804020D
:103980000100007048080808F0000000003036010F
:103990000000C030C828E810E000071827242314CE
:1039A0000B000000C038E0000000203C230202278A
:1039B000382008F8888888700000203F20202011D7
:1039C0000E00C03008080808380007182020201012
:1039D000080008F808080810E000203F2020201008
:1039E0000F0008F88888E8081000203F20202320D6
:1039F000180008F88888E8081000203F200003001D
:103A00000000C03008080838000007182020221ED7
:103A1000020008F808000008F808203F21010121F1
:103A20003F20000808F8080800000020203F202060
:103A3000000000000808F8080800C08080807F00AF
:103A4000000008F888C028180800203F2001263808
:103A5000200008F8080000000000203F202020205F
:103A6000300008F8F800F8F80800203F003F003F59
:103A7000200008F830C00008F808203F2000071890
:103A80003F00E01008080810E0000F102020201070
:103A90000F0008F808080808F000203F2101010184
:103AA0000000E01008080810E0000F182424385027
:103AB0004F0008F8888888887000203F2000030C99
:103AC00030200070880808083800003820212122A2
:103AD0001C00180808F8080818000000203F200003
:103AE000000008F808000008F808001F2020202027
:103AF0001F000878880000C83808000007380E0149
:103B00000000F80800F80008F800033C0700073C34
:103B10000300081868808068180820302C03032CE4
:103B200030200838C800C83808000000203F2000B6
:103B3000000010080808C838080020382621202076
:103B40001800000000FE020202000000007F40405A
:103B50004000000C30C000000000000000010638EA
:103B6000C00000020202FE000000004040407F0052
:103B70000000000004020202040000000000000037
:103B80000000000000000000000080808080808035
:103B9000808000020204000000000000000000001D
:103BA0000000000080808080000000192422222272
:103BB0003F2008F8008080000000003F1120201105
:103BC0000E000000008080800000000E11202020E8
:103BD0001100000000808088F800000E11202010E5
:103BE0003F200000808080800000001F22222222CF
:103BF0001300008080F0888888180020203F202053
:103C000000000000808080808000006B949494937A
:103C1000600008F8008080800000203F2100002024
:103C20003F2000809898000000000020203F2020C6
:103C30000000000000809898000000C08080807F15
:103C4000000008F8000080808000203F24022D3012
:103C50002000000808F8000000000020203F20207D
:103C600000008080808080808000203F20003F20F6
:103C7000003F8080008080800000203F21000020E5
:103C80003F200000808080800000001F2020202036
:103C90001F00808000808000000080FFA120201194
:103CA0000E000000008080808000000E112020A007
:103CB000FF80808080008080800020203F212000C5
:103CC00001000000808080808000003324242424B0
:103CD0001900008080E0808000000000001F20208C
:103CE00000008080000000808000001F2020201045
:103CF0003F20808080000080808000010E30080618
:103D0000010080800080008080800F300C030C3028
:103D10000F0000808000808080000020312E0E3156
:103D20002000808080000080808080818E70180656
:103D3000010000808080808080000021302C2221C2
:103D4000300000000000807C020200000000003F04
:103D5000404000000000FF00000000000000FF00E5
:103D600000000002027C800000000040403F000094
:103D7000000000060101020204040000000000002F
:103D80000000004060F820200C0C8CFE8888081091
:103D90000000000000000000000000000000000023
:103DA0000000000406071A010A197130382D63005B
:103DB0000000000000000000000000000000000003
:103DC00000000000E00000061CE0000060C0800071
:103DD00000000000000000000000000000000000E3
:103DE0000000000E0100000040613F0000000102E1
:103DF00000000000000000000000000000000000C3
:103E000000000088F88E8CF818C0B88888888C006C
:103E100000000000000000000000000000000000A2
:103E200000000064341F7C34247F00000778000009
:103E30000000000000000000000000000000000082
:103E400000000000643E000800000020D8000000D0
:103E5000881600083C3F0008D8000020000400003D
:103E60009816000800A24A040000000000000000AC
:103E70000000000000000000DA0FC940DB0F4940DD
:103E80000000000000000000000000000000000032
:103E90000000000000000000000000000000000022
:103EA0000000000000000000000000000000000012
:103EB0000000000000000000000000000000000002
:103EC00000000000000000000000000000000000F2
:103ED00000000000000000000000000000000000E2
:103EE00000000000000000000000000000000000D2
:103EF00000000000000000000000000000000000C2
:103F0000CDCCCC3E0000000000000000000000000E
:103F100000000000000000000000000000000000A1
:103F20000000000000000000000000000000000091
:0C3F300000000000000000000000000085
:0400000508000105E9
:00000001FF
